:100000000C9462000C948A000C948A000C948A0070
:100010000C948A000C948A000C948A000C948A0038
:100020000C948A000C948A000C948A000C948A0028
:100030000C948A000C948A000C948A000C948A0018
:100040000C9482030C948A000C9450070C94930730
:100050000C948A000C948A000C948A000C948A00F8
:100060000C948A000C948A00000000070002010032
:100070000003040600000000000000000102040864
:100080001020408001020408102001020408102002
:10009000040404040404040402020202020203032E
:1000A00003030303000000002300260029000000D2
:1000B0000000250028002B0000000000240027007D
:1000C0002A004F0811241FBECFEFD8E0DEBFCDBFFE
:1000D00011E0A0E0B1E0E6E3F2E102C005900D928C
:1000E000A638B107D9F722E0A6E8B1E001C01D9219
:1000F000AF35B207E1F710E0C4ECD0E004C02297BE
:10010000FE010E940609C23CD107C9F70E94B10650
:100110000C94A5080C940000AF92BF92CF92DF928E
:10012000EF92FF920F931F938CE00E94F404909340
:10013000A5018093A4018EE00E941D059093AB0160
:100140008093AA01BC01882777FD8095982F1F9284
:100150001F921F921F9224E6A22EB12CC12CD12CEB
:10016000EE24EA9413E0F12E00E010E020E030E00D
:10017000A9010E943A057093A9016093A8010F900C
:100180000F900F900F901F910F91FF90EF90DF90C5
:10019000CF90BF90AF90089565E071E085EB91E05E
:1001A0000E94BF056091AA017091AB014AE050E046
:1001B00085EB91E00E9491066BE071E085EB91E0A8
:1001C0000E94BF056091A8017091A9014AE050E02A
:1001D00085EB91E00E94910663E171E085EB91E08F
:1001E0000E94BF056091A4017091A5014AE050E012
:1001F00085EB91E00E94910680919E0190919F0174
:10020000019719F46AE171E002C069E271E085EBDF
:1002100091E00E94BF056091A0017091A1014AE0A8
:1002200050E085EB91E00C949906CF92DF92EF922B
:10023000FF920F931F93CF93DF93C0919E01D091B4
:100240009F01C130D10509F055C000918E01109178
:100250008F0120919001309191016B017C01C01AB6
:10026000D10AE20AF30A48EEC41643E0D406E104D8
:10027000F10408F4CDC060938E0170938F018093D8
:1002800090019093910180919C0190919D0161E07A
:100290000197C1F486E00E94BE0461E085E00E94FF
:1002A000BE0461E084E00E94BE0461E083E00E943D
:1002B000BE0461E082E00E94BE0410929D01109293
:1002C0009C01A6C086E00E94BE0461E085E00E9419
:1002D000BE0461E084E00E94BE0461E083E00E940D
:1002E000BE0460E082E00E94BE04D0939D01C093F2
:1002F0009C018EC08091A8019091A9018035910543
:10030000A4F060E086E00E94BE0460E085E00E9408
:10031000BE0460E084E00E94BE0460E083E00E94CE
:10032000BE0460E082E00E94BE048091A80190912A
:10033000A901CC974497A0F461E086E00E94BE0436
:1003400060E085E00E94BE0460E084E00E94BE049C
:1003500060E083E00E94BE0460E082E00E94BE0490
:100360008091A8019091A90188974497A0F461E039
:1003700086E00E94BE0461E085E00E94BE0460E069
:1003800084E00E94BE0460E083E00E94BE0460E05E
:1003900082E00E94BE048091A8019091A901449737
:1003A0004497A0F461E086E00E94BE0461E085E02D
:1003B0000E94BE0461E084E00E94BE0460E083E02D
:1003C0000E94BE0460E082E00E94BE048091A80109
:1003D0009091A9014497E4F461E086E00E94BE0494
:1003E00061E085E00E94BE0461E084E00E94BE04FA
:1003F00061E083E00E94BE0460E082E0DF91CF9183
:100400001F910F91FF90EF90DF90CF900C94BE045E
:10041000DF91CF911F910F91FF90EF90DF90CF90E0
:10042000089540E052EC61E070E085EB91E00E94BD
:10043000CE0761E08DE00E94850460E08CE00E94C0
:10044000850461E086E00E94850461E085E00E9409
:10045000850461E084E00E94850461E083E00E94FD
:10046000850461E082E00E9485041092A10110924F
:10047000A00110929F0110929E010E948C000E9488
:10048000CC0060E070E0CB010C941501CF92DF92BC
:10049000EF92FF920E94CC036B017C010E948C00C2
:1004A000C701B6010E9415012091A8013091A90150
:1004B0008091A6019091A7012817390719F1809121
:1004C000860190918701A0918801B0918901B701BF
:1004D000A601481B590B6A0B7B0BDB01CA01883E46
:1004E0009340A105B10570F0C0928601D0928701BA
:1004F000E0928801F09289013093A7012093A60130
:100500000E94CC008091960190919701A091980152
:10051000B0919901A7019601281B390B4A0B5B0B7F
:10052000DA01C901803C944DA140B10570F0C09240
:100530009601D0929701E0929801F0929901109261
:10054000A3011092A2010E94CC0080919E01909183
:100550009F01892B09F0B4C0809192019091930181
:10056000A0919401B0919501B701A601481B590BC8
:100570006A0B7B0BDB01CA0180389E4EA643B10596
:1005800060F01092A1011092A001C0929201D0924D
:100590009301E0929401F09295018091A0019091D5
:1005A000A1010597A4F081E090E090939F018093D2
:1005B0009E01C0928A01D0928B01E0928C01F09250
:1005C0008D0168E371E085EB91E00E94DC0580918C
:1005D000A8019091A90188973CF080919A0190918F
:1005E0009B01019709F067C08091A2019091A3013E
:1005F000892B09F060C06CE471E085EB91E00E940A
:10060000BF058091A8019091A901CC973CF481E0AD
:1006100090E090939B0180939A0104C010929B01FB
:1006200010929A0168E571E085EB91E00E94BF05A8
:1006300060919A0170919B014AE050E085EB91E056
:100640000E94990661E08DE00E94BE0468E57BE1AE
:1006500080E090E00E94FB0360E08DE00E94BE0419
:1006600066E671E085EB91E00E94DC0581E090E0B8
:100670009093A3018093A2016091A0017091A101C8
:100680006F5F7F4F7093A1016093A0014AE050E03B
:1006900085EB91E00E9499068091A0019091A101C3
:1006A000029734F5C0929201D0929301E0929401A6
:1006B000F09295011DC060E08DE00E94BE0418C05C
:1006C00080918A0190918B01A0918C01B0918D0154
:1006D000C81AD90AEA0AFB0A60E8C6166EEED60600
:1006E00066E3E606F10420F010929F0110929E014D
:1006F00064E070E080E090E0FF90EF90DF90CF90BA
:100700000C94FB031F920F920FB60F9211242F939C
:100710003F938F939F93AF93BF938091AD0190913F
:10072000AE01A091AF01B091B0013091AC0123E0D6
:10073000230F2D3720F40196A11DB11D05C026E819
:10074000230F0296A11DB11D2093AC018093AD0132
:100750009093AE01A093AF01B093B0018091B1012D
:100760009091B201A091B301B091B4010196A11D85
:10077000B11D8093B1019093B201A093B301B093E6
:10078000B401BF91AF919F918F913F912F910F90A5
:100790000FBE0F901F9018952FB7F8946091AD0180
:1007A0007091AE018091AF019091B0012FBF08957B
:1007B0003FB7F8948091B1019091B201A091B3013B
:1007C000B091B40126B5A89B05C02F3F19F0019642
:1007D000A11DB11D3FBF6627782F892F9A2F620F69
:1007E000711D811D911D42E0660F771F881F991FA3
:1007F0004A95D1F70895CF92DF92EF92FF92CF936F
:10080000DF936B017C010E94D803EB01C114D1047A
:10081000E104F10479F00E94D8036C1B7D0B683E63
:100820007340A0F381E0C81AD108E108F108C8516B
:10083000DC4FECCFDF91CF91FF90EF90DF90CF9026
:100840000895789484B5826084BD84B5816084BD48
:1008500085B5826085BD85B5816085BDEEE6F0E039
:10086000808181608083E1E8F0E010828081826095
:100870008083808181608083E0E8F0E08081816016
:100880008083E1EBF0E0808184608083E0EBF0E046
:10089000808181608083EAE7F0E0808184608083EA
:1008A0008081826080838081816080838081806894
:1008B00080831092C1000895833081F028F4813044
:1008C00099F08230A1F008958630A9F08730B9F010
:1008D0008430D1F4809180008F7D03C080918000AE
:1008E0008F7780938000089584B58F7702C084B598
:1008F0008F7D84BD08958091B0008F7703C0809173
:10090000B0008F7D8093B0000895CF93DF9390E087
:10091000FC01E458FF4F2491FC01E057FF4F849104
:10092000882349F190E0880F991FFC01E854FF4F9C
:10093000A591B49182559F4FFC01C591D4919FB769
:10094000611108C0F8948C91209582238C93888142
:1009500082230AC0623051F4F8948C91322F309582
:1009600083238C938881822B888304C0F8948C9194
:10097000822B8C939FBFDF91CF9108950F931F938C
:10098000CF93DF931F92CDB7DEB7282F30E0F90168
:10099000E859FF4F8491F901E458FF4F1491F90190
:1009A000E057FF4F04910023C9F0882321F06983A9
:1009B0000E945C046981E02FF0E0EE0FFF1FE2551A
:1009C000FF4FA591B4919FB7F8948C91611103C02A
:1009D0001095812301C0812B8C939FBF0F90DF91D5
:1009E000CF911F910F910895CF93DF93282F30E07F
:1009F000F901E859FF4F8491F901E458FF4FD49170
:100A0000F901E057FF4FC491CC2391F081110E946E
:100A10005C04EC2FF0E0EE0FFF1FEC55FF4FA591AB
:100A2000B4912C912D2381E090E021F480E002C06C
:100A300080E090E0DF91CF9108958E3008F08E50E5
:100A400087702091040190E4299F90011124822B4A
:100A500080937C0080917A00806480937A008091FA
:100A60007A0086FDFCCF809178002091790090E09B
:100A7000922B08954F925F926F927F92AF92BF92A6
:100A8000CF92DF92EF92FF920F931F93CF93DF935A
:100A9000CDB7DEB729013A01621B730B840B950BAE
:100AA00029893A894B895C892A193B094C095D09D6
:100AB000298B3A8B4B8B5C8B9B01AC0169897A89C2
:100AC0008B899C890E94A808E418F5080609170973
:100AD000A80197010E94DA082A0D3B1D4C1D5D1DDF
:100AE000CA01B901DF91CF911F910F91FF90EF9053
:100AF000DF90CF90BF90AF907F906F905F904F90BE
:100B00000895CF92DF92EF92FF920F931F93CF93AE
:100B1000DF936C017A01EB01E60EF71E00E010E0B6
:100B2000CE15DF0561F06991D601ED91FC91019040
:100B3000F081E02DC6010995080F191FF1CFC801FA
:100B4000DF91CF911F910F91FF90EF90DF90CF90A9
:100B500008956115710581F0DB010D900020E9F722
:100B6000AD0141505109461B570BDC01ED91FC9141
:100B70000280F381E02D099480E090E008950C94C8
:100B8000A905DC01ED91FC910190F081E02D099423
:100B90000F931F93CF93DF93EC016DE00E94C1058B
:100BA0008C016AE0CE010E94C105800F911FDF9188
:100BB000CF911F910F9108950F931F93CF93DF93C0
:100BC000EC010E94A9058C01CE010E94C805800F8E
:100BD000911FDF91CF911F910F9108958F929F9256
:100BE000AF92BF92CF92DF92EF92FF920F931F933B
:100BF000CF93DF93CDB7DEB7A1970FB6F894DEBFE2
:100C00000FBECDBF7C01C42EE52FCB01D22E19A281
:100C100021E02D1510F02AE0D22E8E010F5D1F4F1E
:100C20008D2C912CA12CB12C6C2D7E2FA501940123
:100C30000E94B8088C2DD29E8019112401501109F0
:100C40008A3014F4805D01C0895CF801808321152D
:100C500031054105510521F0C22EE32FCA01E4CF31
:100C6000B801C7010E94A905A1960FB6F894DEBF8E
:100C70000FBECDBFDF91CF911F910F91FF90EF90ED
:100C8000DF90CF90BF90AF909F908F900895CF92BC
:100C9000DF92EF92FF920F931F93CF93DF93EC01BC
:100CA0006A017B012115310579F4E881F981019010
:100CB000F081E02D642FDF91CF911F910F91FF9074
:100CC000EF90DF90CF9009942A303105E9F477FF57
:100CD0001AC06DE20E94C1058C0144275527BA0154
:100CE0004C195D096E097F092AE0CE010E94EE05CC
:100CF000800F911FDF91CF911F910F91FF90EF9087
:100D0000DF90CF9008952AE0B701A601CE01DF91D0
:100D1000CF911F910F91FF90EF90DF90CF900C94A7
:100D2000EE059A01AB01662757FD6095762F0C946E
:100D300047060F931F93CF93DF93EC019A01AB010A
:100D4000662757FD6095762F0E9447068C01CE01DD
:100D50000E94C805800F911FDF91CF911F910F91C5
:100D600008950E9421040E941102CAE8D7E00E945F
:100D700046022097E1F30E948A07F9CFFC012485FF
:100D80003585F901E05CFF4F8081918132962081A9
:100D90003181821B930B8F7399270895FC01848501
:100DA0009585FC01E05CFF4F4081518132962081A6
:100DB00031814217530741F00190F081E02DE80F97
:100DC000F91F808190E008958FEF9FEF0895FC0157
:100DD00084859585FC01E05CFF4F4081518132960E
:100DE000208131814217530779F0A081B181A80F8A
:100DF000B91F8C91208131812F5F3F4F2F73332793
:100E00003183208390E008958FEF9FEF0895FC01D8
:100E100081A1882329F0A489B5898C9186FFFBCF15
:100E200011A20895CF93DF93FC0126853785D90160
:100E3000A05CBF4F8D919C91119701968F7399275C
:100E4000E901CE5BDF4F4881598184179507D9F3BB
:100E50000D90BC91A02DA20FB31F6C93A685B785F2
:100E6000A05CBF4F11969C938E93A689B7892C9155
:100E700081E090E0078C02C0880F991F0A94E2F786
:100E8000282B2C9381E081A30488F589E02D8081B3
:100E90008064808381E090E0DF91CF910895089590
:100EA0001F920F920FB60F9211242F933F934F93DF
:100EB0008F939F93EF93FF938091C00082FD1CC09E
:100EC0004091C60080915B0290915C0201968F7305
:100ED000992720915D0230915E028217930771F08D
:100EE000E0915B02F0915C02E55EFD4F40839093E0
:100EF0005C0280935B0202C08091C600FF91EF917B
:100F00009F918F914F913F912F910F900FBE0F9016
:100F10001F90189585EB91E00E94BE06892B11F079
:100F20000C944F0708951F920F920FB60F92112441
:100F30002F933F938F939F93EF93FF9320911702EB
:100F4000309118028091190290911A0228173907DE
:100F500031F48091C1008F7D8093C10014C0E09175
:100F60001902F0911A02E952FE4F20818091190274
:100F700090911A0201968F73992790931A02809389
:100F800019022093C600FF91EF919F918F913F919D
:100F90002F910F900FBE0F901F901895CF92DF9258
:100FA000EF92FF92CF93DF93EC016A017B01411531
:100FB00081EE580761057105F9F0EC89FD8981E042
:100FC00090E008A002C0880F991F0A94E2F780837E
:100FD00060E079E08DE390E0A70196010E94B808F7
:100FE0002150310941095109569547953795279563
:100FF000211580E1380798F0EC89FD89108260E8BE
:1010000074E88EE190E0A70196010E94B808215093
:101010003109410951095695479537952795E88932
:10102000F9893083EA89FB89208319A2EE89FF8937
:10103000408181E090E09C010C8C02C0220F331FA4
:101040000A94E2F7422B4083EE89FF8940819C019C
:101050000D8C02C0220F331F0A94E2F7422B40830B
:10106000EE89FF8940819C010E8C02C0220F331F44
:101070000A94E2F7422B4083EE89FF8920810F8C8E
:1010800002C0880F991F0A94E2F78095822380831B
:10109000DF91CF91FF90EF90DF90CF900895109265
:1010A000B8011092B70188EE93E0A0E0B0E0809321
:1010B000B9019093BA01A093BB01B093BC0189E739
:1010C00091E09093B6018093B5018BE192E090930B
:1010D000C2018093C10187ED91E09093C401809398
:1010E000C30185EC90E09093C6018093C50184EC28
:1010F00090E09093C8018093C70180EC90E09093BA
:10110000CA018093C90181EC90E09093CC01809357
:10111000CB0182EC90E09093CE018093CD0186ECE0
:1011200090E09093D0018093CF0184E08093D1012F
:1011300083E08093D20187E08093D30185E08093A0
:10114000D40181E08093D5010895F8940C94190995
:10115000DB018F939F930E94F908BF91AF91A29FEB
:10116000800D911DA39F900DB29F900D11240895A5
:10117000A1E21A2EAA1BBB1BFD010DC0AA1FBB1F9B
:10118000EE1FFF1FA217B307E407F50720F0A21B0D
:10119000B30BE40BF50B661F771F881F991F1A947A
:1011A00069F760957095809590959B01AC01BD01A4
:1011B000CF010895052E97FB1EF400940E94F108BC
:1011C00057FD07D00E94B80807FC03D04EF40C94DA
:1011D000F10850954095309521953F4F4F4F5F4F07
:1011E000089590958095709561957F4F8F4F9F4F93
:1011F00008950E940A09A59F900DB49F900DA49F89
:10120000800D911D11240895EE0FFF1F0590F4919C
:10121000E02D0994A29FB001B39FC001A39F700D60
:10122000811D1124911DB29F700D811D1124911DEE
:061230000895F894FFCFC1
:1012360001000000017261773A200020206D617084
:101246003A200020206469673A00202078576174AC
:101256006572656421213A20002020785761746503
:1012660072656420203A20002121214F766572574D
:1012760061746572696E6721212121005761746569
:1012860072696E672E2E2E006879737465726573A7
:101296006973203D2000446F6E6520576174657246
:1012A600696E672E000000000012078105BE06E782
:0612B60006CE060707004A
:00000001FF
