:100000000C9462000C948A000C948A000C948A0070
:100010000C948A000C948A000C948A000C948A0038
:100020000C948A000C948A000C948A000C948A0028
:100030000C948A000C948A000C948A000C948A0018
:100040000C9486030C948A000C9454070C94970724
:100050000C948A000C948A000C948A000C948A00F8
:100060000C948A000C948A00000000070002010032
:100070000003040600000000000000000102040864
:100080001020408001020408102001020408102002
:10009000040404040404040402020202020203032E
:1000A00003030303000000002300260029000000D2
:1000B0000000250028002B0000000000240027007D
:1000C0002A00530811241FBECFEFD8E0DEBFCDBFFA
:1000D00011E0A0E0B1E0EEE3F2E102C005900D9284
:1000E000A83AB107D9F722E0A8EAB1E001C01D9211
:1000F000A138B207E1F710E0C4ECD0E004C02297C9
:10010000FE010E940A09C23CD107C9F70E94B50648
:100110000C94A9080C940000AF92BF92CF92DF928A
:10012000EF92FF920F931F938CE00E94F80490933C
:10013000C7018093C6018EE00E9421059093CD01F6
:100140008093CC01BC01882777FD8095982F1F9262
:100150001F921F921F9224E6A22EB12CC12CD12CEB
:10016000EE24EA9413E0F12E00E010E020E030E00D
:10017000A9010E943E057093CB016093CA010F90C4
:100180000F900F900F901F910F91FF90EF90DF90C5
:10019000CF90BF90AF90089565E071E087ED91E05A
:1001A0000E94C3056091CC017091CD014AE050E0FE
:1001B00087ED91E00E9495066FE071E087ED91E098
:1001C0000E94C3056091CA017091CB014AE050E0E2
:1001D00087ED91E00E9495066BE171E087ED91E07B
:1001E0000E94C3056091C6017091C7014AE050E0CA
:1001F00087ED91E00E9495066FE271E087ED91E056
:100200000E94C3056091C2017091C3014AE050E0B1
:1002100087ED91E00E949D068091C0019091C101FF
:10022000019731F46FE371E087ED91E00C94C30521
:100230000895CF92DF92EF92FF920F931F93CF9387
:10024000DF93C091C001D091C101C130D10509F047
:1002500055C00091B0011091B1012091B2013091CF
:10026000B3016B017C01C01AD10AE20AF30A48EE1D
:10027000C41643E0D406E104F10408F4CDC0609351
:10028000B0017093B1018093B2019093B30180915A
:10029000BE019091BF0161E00197C1F486E00E9428
:1002A000C20461E085E00E94C20461E084E00E9433
:1002B000C20461E083E00E94C20461E082E00E9427
:1002C000C2041092BF011092BE01A6C086E00E9437
:1002D000C20461E085E00E94C20461E084E00E9403
:1002E000C20461E083E00E94C20460E082E00E94F8
:1002F000C204D093BF01C093BE018EC08091CA01D9
:100300009091CB0180359105A4F060E086E00E94D9
:10031000C20460E085E00E94C20460E084E00E94C4
:10032000C20460E083E00E94C20460E082E00E94B8
:10033000C2048091CA019091CB01CC974497A0F45C
:1003400061E086E00E94C20460E085E00E94C20491
:1003500060E084E00E94C20460E083E00E94C20486
:1003600060E082E00E94C2048091CA019091CB01BA
:1003700088974497A0F461E086E00E94C20461E09F
:1003800085E00E94C20460E084E00E94C20460E054
:1003900083E00E94C20460E082E00E94C204809177
:1003A000CA019091CB0144974497A0F461E086E0A4
:1003B0000E94C20461E085E00E94C20461E084E022
:1003C0000E94C20460E083E00E94C20460E082E018
:1003D0000E94C2048091CA019091CB014497E4F439
:1003E00061E086E00E94C20461E085E00E94C204F0
:1003F00061E084E00E94C20461E083E00E94C204E4
:1004000060E082E0DF91CF911F910F91FF90EF901C
:10041000DF90CF900C94C204DF91CF911F910F9188
:10042000FF90EF90DF90CF90089540E052EC61E0B4
:1004300070E087ED91E00E94D20761E08DE00E94BC
:10044000890460E08CE00E94890461E086E00E94FB
:10045000890461E085E00E94890461E084E00E94F3
:10046000890461E083E00E94890461E082E00E94E7
:1004700089041092C3011092C2011092C10110921E
:10048000C0010E948C000E94CC0060E070E0CB01B3
:100490000C941901CF92DF92EF92FF920E94D00349
:1004A0006B017C010E948C00C701B6010E941901FA
:1004B0002091CA013091CB018091C8019091C9016E
:1004C0002817390719F18091A8019091A901A091ED
:1004D000AA01B091AB01B701A601481B590B6A0BE9
:1004E0007B0BDB01CA01883E9340A105B10570F08A
:1004F000C092A801D092A901E092AA01F092AB01AA
:100500003093C9012093C8010E94CC008091B801AA
:100510009091B901A091BA01B091BB01A7019601D8
:10052000281B390B4A0B5B0BDA01C901803C944D47
:10053000A140B10570F0C092B801D092B901E0922B
:10054000BA01F092BB011092C5011092C4010E9441
:10055000CC008091C0019091C101892B09F0B4C0F9
:100560008091B4019091B501A091B601B091B7010D
:10057000B701A601481B590B6A0B7B0BDB01CA01B3
:1005800080389E4EA643B10560F01092C3011092D0
:10059000C201C092B401D092B501E092B601F092CE
:1005A000B7018091C2019091C3010597A4F081E049
:1005B00090E09093C1018093C001C092AC01D092B1
:1005C000AD01E092AE01F092AF016AE571E087ED16
:1005D00091E00E94E0058091CA019091CB0188973B
:1005E0003CF08091BC019091BD01019709F067C07A
:1005F0008091C4019091C501892B09F060C06EE61D
:1006000071E087ED91E00E94C3058091CA0190914D
:10061000CB01CC973CF481E090E09093BD018093B6
:10062000BC0104C01092BD011092BC016AE771E0E8
:1006300087ED91E00E94C3056091BC017091BD01FE
:100640004AE050E087ED91E00E949D0661E08DE078
:100650000E94C20468E57BE180E090E00E94FF0315
:1006600060E08DE00E94C20468E871E087ED91E0EF
:100670000E94E00581E090E09093C5018093C40161
:100680006091C2017091C3016F5F7F4F7093C3018E
:100690006093C2014AE050E087ED91E00E949D0620
:1006A0008091C2019091C301029734F5C092B401C8
:1006B000D092B501E092B601F092B7011DC060E0A2
:1006C0008DE00E94C20418C08091AC019091AD01F0
:1006D000A091AE01B091AF01C81AD90AEA0AFB0A8B
:1006E00060E8C6166EEED60666E3E606F10420F074
:1006F0001092C1011092C00162E070E080E090E0D1
:10070000FF90EF90DF90CF900C94FF031F920F9219
:100710000FB60F9211242F933F938F939F93AF9314
:10072000BF938091CF019091D001A091D101B09160
:10073000D2013091CE0123E0230F2D3720F4019612
:10074000A11DB11D05C026E8230F0296A11DB11DF4
:100750002093CE018093CF019093D001A093D1013B
:10076000B093D2018091D3019091D401A091D50191
:10077000B091D6010196A11DB11D8093D301909334
:10078000D401A093D501B093D601BF91AF919F91B1
:100790008F913F912F910F900FBE0F901F90189542
:1007A0002FB7F8946091CF017091D0018091D10161
:1007B0009091D2012FBF08953FB7F8948091D30153
:1007C0009091D401A091D501B091D60126B5A89BF6
:1007D00005C02F3F19F00196A11DB11D3FBF66272F
:1007E000782F892F9A2F620F711D811D911D42E074
:1007F000660F771F881F991F4A95D1F70895CF92EA
:10080000DF92EF92FF92CF93DF936B017C010E9406
:10081000DC03EB01C114D104E104F10479F00E947E
:10082000DC036C1B7D0B683E7340A0F381E0C81AAB
:10083000D108E108F108C851DC4FECCFDF91CF912E
:10084000FF90EF90DF90CF900895789484B5826008
:1008500084BD84B5816084BD85B5826085BD85B564
:10086000816085BDEEE6F0E0808181608083E1E813
:10087000F0E010828081826080838081816080834B
:10088000E0E8F0E0808181608083E1EBF0E080814E
:1008900084608083E0EBF0E0808181608083EAE720
:1008A000F0E08081846080838081826080838081A9
:1008B000816080838081806880831092C100089568
:1008C000833081F028F4813099F08230A1F00895CE
:1008D0008630A9F08730B9F08430D1F4809180005F
:1008E0008F7D03C0809180008F7780938000089572
:1008F00084B58F7702C084B58F7D84BD08958091C3
:10090000B0008F7703C08091B0008F7D8093B000DE
:100910000895CF93DF9390E0FC01E458FF4F2491BA
:10092000FC01E057FF4F8491882349F190E0880F44
:10093000991FFC01E854FF4FA591B49182559F4F38
:10094000FC01C591D4919FB7611108C0F8948C91B6
:10095000209582238C93888182230AC0623051F4CF
:10096000F8948C91322F309583238C938881822B3D
:10097000888304C0F8948C91822B8C939FBFDF9165
:10098000CF9108950F931F93CF93DF931F92CDB70D
:10099000DEB7282F30E0F901E859FF4F8491F901C3
:1009A000E458FF4F1491F901E057FF4F04910023E1
:1009B000C9F0882321F069830E9460046981E02FD7
:1009C000F0E0EE0FFF1FE255FF4FA591B4919FB7E6
:1009D000F8948C91611103C01095812301C0812B83
:1009E0008C939FBF0F90DF91CF911F910F9108952E
:1009F000CF93DF93282F30E0F901E859FF4F84911E
:100A0000F901E458FF4FD491F901E057FF4FC49129
:100A1000CC2391F081110E946004EC2FF0E0EE0FE6
:100A2000FF1FEC55FF4FA591B4912C912D2381E030
:100A300090E021F480E002C080E090E0DF91CF916F
:100A400008958E3008F08E5087702091040190E454
:100A5000299F90011124822B80937C0080917A0041
:100A6000806480937A0080917A0086FDFCCF80912B
:100A700078002091790090E0922B08954F925F9238
:100A80006F927F92AF92BF92CF92DF92EF92FF92DE
:100A90000F931F93CF93DF93CDB7DEB729013A01B0
:100AA000621B730B840B950B29893A894B895C89EE
:100AB0002A193B094C095D09298B3A8B4B8B5C8BBE
:100AC0009B01AC0169897A898B899C890E94AC0859
:100AD000E418F50806091709A80197010E94DE0825
:100AE0002A0D3B1D4C1D5D1DCA01B901DF91CF913F
:100AF0001F910F91FF90EF90DF90CF90BF90AF903C
:100B00007F906F905F904F900895CF92DF92EF9219
:100B1000FF920F931F93CF93DF936C017A01EB0148
:100B2000E60EF71E00E010E0CE15DF0561F06991DA
:100B3000D601ED91FC910190F081E02DC60109955F
:100B4000080F191FF1CFC801DF91CF911F910F91AD
:100B5000FF90EF90DF90CF9008956115710581F0BF
:100B6000DB010D900020E9F7AD0141505109461B12
:100B7000570BDC01ED91FC910280F381E02D09948B
:100B800080E090E008950C94AD05DC01ED91FC91BE
:100B90000190F081E02D09940F931F93CF93DF9381
:100BA000EC016DE00E94C5058C016AE0CE010E9457
:100BB000C505800F911FDF91CF911F910F9108956F
:100BC0000F931F93CF93DF93EC010E94AD058C012F
:100BD000CE010E94CC05800F911FDF91CF911F9114
:100BE0000F9108958F929F92AF92BF92CF92DF9212
:100BF000EF92FF920F931F93CF93DF93CDB7DEB7A2
:100C0000A1970FB6F894DEBF0FBECDBF7C01C42EF6
:100C1000E52FCB01D22E19A221E02D1510F02AE0EC
:100C2000D22E8E010F5D1F4F8D2C912CA12CB12C3B
:100C30006C2D7E2FA50194010E94BC088C2DD29EA4
:100C400080191124015011098A3014F4805D01C00B
:100C5000895CF8018083211531054105510521F09A
:100C6000C22EE32FCA01E4CFB801C7010E94AD052F
:100C7000A1960FB6F894DEBF0FBECDBFDF91CF9126
:100C80001F910F91FF90EF90DF90CF90BF90AF90AA
:100C90009F908F900895CF92DF92EF92FF920F93E3
:100CA0001F93CF93DF93EC016A017B01211531057E
:100CB00079F4E881F9810190F081E02D642FDF91D2
:100CC000CF911F910F91FF90EF90DF90CF900994FB
:100CD0002A303105E9F477FF1AC06DE20E94C5059C
:100CE0008C0144275527BA014C195D096E097F090B
:100CF0002AE0CE010E94F205800F911FDF91CF9173
:100D00001F910F91FF90EF90DF90CF9008952AE010
:100D1000B701A601CE01DF91CF911F910F91FF90F6
:100D2000EF90DF90CF900C94F2059A01AB0166270B
:100D300057FD6095762F0C944B060F931F93CF931E
:100D4000DF93EC019A01AB01662757FD6095762F82
:100D50000E944B068C01CE010E94CC05800F911F92
:100D6000DF91CF911F910F9108950E9425040E9459
:100D70001502CEE8D7E00E944A022097E1F30E94D4
:100D80008E07F9CFFC0124853585F901E05CFF4F22
:100D900080819181329620813181821B930B8F73E8
:100DA00099270895FC0184859585FC01E05CFF4F3F
:100DB000408151813296208131814217530741F0A1
:100DC0000190F081E02DE80FF91F808190E00895F7
:100DD0008FEF9FEF0895FC0184859585FC01E05C11
:100DE000FF4F408151813296208131814217530754
:100DF00079F0A081B181A80FB91F8C912081318138
:100E00002F5F3F4F2F7333273183208390E0089566
:100E10008FEF9FEF0895FC0181A1882329F0A48919
:100E2000B5898C9186FFFBCF11A20895CF93DF93F4
:100E3000FC0126853785D901A05CBF4F8D919C911F
:100E4000119701968F739927E901CE5BDF4F488197
:100E5000598184179507D9F30D90BC91A02DA20F4D
:100E6000B31F6C93A685B785A05CBF4F11969C936A
:100E70008E93A689B7892C9181E090E0078C02C0FF
:100E8000880F991F0A94E2F7282B2C9381E081A305
:100E90000488F589E02D80818064808381E090E082
:100EA000DF91CF91089508951F920F920FB60F9280
:100EB00011242F933F934F938F939F93EF93FF931F
:100EC0008091C00082FD1CC04091C60080917D02CF
:100ED00090917E0201968F73992720917F02309125
:100EE00080028217930771F0E0917D02F0917E02FB
:100EF000E35CFD4F408390937E0280937D0202C0AD
:100F00008091C600FF91EF919F918F914F913F91FA
:100F10002F910F900FBE0F901F90189587ED91E0C5
:100F20000E94C206892B11F00C94530708951F925A
:100F30000F920FB60F9211242F933F938F939F938D
:100F4000EF93FF932091390230913A0280913B0256
:100F500090913C022817390731F48091C1008F7DB0
:100F60008093C10014C0E0913B02F0913C02E75035
:100F7000FE4F208180913B0290913C0201968F733D
:100F8000992790933C0280933B022093C600FF91E7
:100F9000EF919F918F913F912F910F900FBE0F90E6
:100FA0001F901895CF92DF92EF92FF92CF93DF932D
:100FB000EC016A017B01411581EE5807610571055D
:100FC000F9F0EC89FD8981E090E008A002C0880F6B
:100FD000991F0A94E2F7808360E079E08DE390E066
:100FE000A70196010E94BC0821503109410951090D
:100FF0005695479537952795211580E1380798F044
:10100000EC89FD89108260E874E88EE190E0A70128
:1010100096010E94BC082150310941095109569599
:10102000479537952795E889F9893083EA89FB89BF
:10103000208319A2EE89FF89408181E090E09C0124
:101040000C8C02C0220F331F0A94E2F7422B40831C
:10105000EE89FF8940819C010D8C02C0220F331F55
:101060000A94E2F7422B4083EE89FF8940819C017C
:101070000E8C02C0220F331F0A94E2F7422B4083EA
:10108000EE89FF8920810F8C02C0880F991F0A9476
:10109000E2F7809582238083DF91CF91FF90EF90DC
:1010A000DF90CF9008951092DA011092D90188EE66
:1010B00093E0A0E0B0E08093DB019093DC01A0938B
:1010C000DD01B093DE018BE991E09093D80180932C
:1010D000D7018DE392E09093E4018093E30189EFDF
:1010E00091E09093E6018093E50185EC90E0909388
:1010F000E8018093E70184EC90E09093EA0180930B
:10110000E90180EC90E09093EC018093EB0181EC9D
:1011100090E09093EE018093ED0182EC90E090934B
:10112000F0018093EF0186EC90E09093F2018093C0
:10113000F10184E08093F30183E08093F40187E080
:101140008093F50185E08093F60181E08093F701BB
:101150000895F8940C941D09DB018F939F930E94CE
:10116000FD08BF91AF91A29F800D911DA39F900D8F
:10117000B29F900D11240895A1E21A2EAA1BBB1B49
:10118000FD010DC0AA1FBB1FEE1FFF1FA217B30753
:10119000E407F50720F0A21BB30BE40BF50B661F69
:1011A000771F881F991F1A9469F76095709580952D
:1011B00090959B01AC01BD01CF010895052E97FBD1
:1011C0001EF400940E94F50857FD07D00E94BC0849
:1011D00007FC03D04EF40C94F508509540953095DB
:1011E00021953F4F4F4F5F4F089590958095709593
:1011F00061957F4F8F4F9F4F08950E940E09A59FC5
:10120000900DB49F900DA49F800D911D1124089501
:10121000EE0FFF1F0590F491E02D0994A29FB001FD
:10122000B39FC001A39F700D811D1124911DB29F1A
:0E123000700D811D1124911D0895F894FFCFBB
:10123E00010000000173656E736F72203D2000097E
:10124E00206F7574707574203D20000920646967E5
:10125E006974616C206F7574707574203D2000097F
:10126E00207761746572636F756E74203D20002166
:10127E00214F766572576174657220466C616720E6
:10128E00697320747275652121002121214F7665C5
:10129E00725761746572696E672121212100576151
:1012AE00746572696E672E2E2E006879737465727E
:1012BE0065736973203D2000446F6E65205761741D
:1012CE006572696E672E000000000016078505C264
:0812DE0006EB06D2060B070027
:00000001FF
