:100000000C9462000C948A000C948A000C948A0070
:100010000C948A000C948A000C948A000C948A0038
:100020000C948A000C948A000C948A000C948A0028
:100030000C948A000C948A000C948A000C948A0018
:100040000C9495030C948A000C9463070C94A607F7
:100050000C948A000C948A000C948A000C948A00F8
:100060000C948A000C948A00000000070002010032
:100070000003040600000000000000000102040864
:100080001020408001020408102001020408102002
:10009000040404040404040402020202020203032E
:1000A00003030303000000002300260029000000D2
:1000B0000000250028002B0000000000240027007D
:1000C0002A00620811241FBECFEFD8E0DEBFCDBFEB
:1000D00011E0A0E0B1E0ECE5F2E102C005900D9284
:1000E000A239B107D9F722E0A2E9B1E001C01D921F
:1000F000AD36B207E1F710E0C4ECD0E004C02297BF
:10010000FE010E941909C23CD107C9F70E94C4062A
:100110000C94B8080C940000AF92BF92CF92DF927B
:10012000EF92FF920F931F938CE00E94070590932C
:10013000B1018093B0018EE00E9430059093B90127
:100140008093B801BC01882777FD8095982F1F9276
:100150001F921F921F9224E6A22EB12CC12CD12CEB
:10016000EE24EA9413E0F12E00E010E020E030E00D
:10017000A9010E944D057093B7016093B6010F90DD
:100180000F900F900F901F910F91FF90EF90DF90C5
:10019000CF90BF90AF90089565E071E083EC91E05F
:1001A0000E94D2056091B8017091B9014AE050E017
:1001B00083EC91E00E94A4066BE071E083EC91E097
:1001C0000E94D2056091B6017091B7014AE050E0FB
:1001D00083EC91E00E94A40663E171E083EC91E07E
:1001E0000E94D2056091B0017091B1014AE050E0E7
:1001F00083EC91E00E94A4068091AA019091AB014A
:10020000019719F46AE171E00BC08091A601909109
:10021000A701019719F46DE271E002C060E471E09A
:1002200083EC91E00E94D2056091AC017091AD0128
:100230004AE050E083EC91E00C94AC068091B6016A
:100240009091B701883291056CF48091A60190914C
:10025000A701892B99F481E090E09093A701809306
:10026000A6010895CD9754F08091A6019091A70121
:10027000019721F41092A7011092A6010895CF9240
:10028000DF92EF92FF920F931F93CF93DF93C09172
:10029000AA01D091AB01C130D10509F055C0009140
:1002A0009A0110919B0120919C0130919D016B015D
:1002B0007C01C01AD10AE20AF30A48EEC41643E0F0
:1002C000D406E104F10408F4CDC060939A01709360
:1002D0009B0180939C0190939D018091A801909136
:1002E000A90161E00197C1F486E00E94D10461E0B8
:1002F00085E00E94D10461E084E00E94D10461E0C5
:1003000083E00E94D10461E082E00E94D104109257
:10031000A9011092A801A6C086E00E94D10461E064
:1003200085E00E94D10461E084E00E94D10461E094
:1003300083E00E94D10460E082E00E94D104D09367
:10034000A901C093A8018EC08091B6019091B70118
:1003500080359105A4F060E086E00E94D10460E061
:1003600085E00E94D10460E084E00E94D10460E056
:1003700083E00E94D10460E082E00E94D104809179
:10038000B6019091B701CC974497A0F461E086E064
:100390000E94D10460E085E00E94D10460E084E026
:1003A0000E94D10460E083E00E94D10460E082E01A
:1003B0000E94D1048091B6019091B701889744972B
:1003C000A0F461E086E00E94D10461E085E00E9433
:1003D000D10460E084E00E94D10460E083E00E94E8
:1003E000D10460E082E00E94D1048091B601909136
:1003F000B70144974497A0F461E086E00E94D104DD
:1004000061E085E00E94D10461E084E00E94D104B3
:1004100060E083E00E94D10460E082E00E94D104A9
:100420008091B6019091B7014497E4F461E086E0D1
:100430000E94D10461E085E00E94D10461E084E083
:100440000E94D10461E083E00E94D10460E082E078
:10045000DF91CF911F910F91FF90EF90DF90CF90A0
:100460000C94D104DF91CF911F910F91FF90EF90E9
:10047000DF90CF90089540E052EC61E070E083ECB3
:1004800091E00E94E10761E08DE00E94980460E045
:100490008CE00E94980461E086E00E94980461E08C
:1004A00085E00E94980461E084E00E94980461E085
:1004B00083E00E94980461E082E00E949804109218
:1004C000AD011092AC011092AB011092AA0163E54C
:1004D00071E083EC91E00E94EF050E948C000E9485
:1004E000CC0060E070E0CB010C943F018F929F92B2
:1004F000AF92BF92CF92DF92EF92FF920E94DF0302
:100500006B017C010E948C00C701B6010E943F0173
:100510000E941E012091B6013091B7014091B401B3
:100520005091B5012417350771F18091B201909176
:10053000B3012817390739F1809192019091930105
:10054000A0919401B091950146015701881A990A2A
:10055000AA0ABB0A68EE861663E09606A104B104F7
:1005600090F0C0929201D0929301E0929401F092A7
:1005700095015093B3014093B2013093B50120939C
:10058000B4010E94CC008091A2019091A301A0919E
:10059000A401B091A50146015701881A990AAA0A37
:1005A000BB0A20EC821624ED920621E0A206B104DB
:1005B00070F0C092A201D092A301E092A401F09247
:1005C000A5011092AF011092AE010E94CC00809163
:1005D000AA019091AB01892B09F081C080919E0105
:1005E00090919F01A091A001B091A10146015701F6
:1005F000881A990AAA0ABB0A20E882162EEE9206E9
:1006000026E3A206B10460F01092AD011092AC0195
:10061000C0929E01D0929F01E092A001F092A101B0
:100620008091B6019091B70188973CF08091A60126
:100630009091A701019709F04DC08091AE01909172
:10064000AF01892B09F046C067E671E083EC91E0C9
:100650000E94D20561E08DE00E94D10468E57BE153
:1006600080E090E00E940E0460E08DE00E94D104E2
:1006700063E771E083EC91E00E94EF0521E030E058
:100680003093AF012093AE018091AC019091AD0108
:1006900001969093AD018093AC01823091054CF4AA
:1006A000C0929E01D0929F01E092A001F092A10120
:1006B0000EC0059764F03093AB012093AA01C0925D
:1006C0009601D0929701E0929801F09299010E94D0
:1006D000CC001DC060E08DE00E94D10418C0809164
:1006E000960190919701A0919801B0919901C81A33
:1006F000D90AEA0AFB0A30E8C3163EEED30636E30F
:10070000E306F10420F01092AB011092AA0164E01C
:1007100070E080E090E0FF90EF90DF90CF90BF908E
:10072000AF909F908F900C940E041F920F920FB673
:100730000F9211242F933F938F939F93AF93BF9367
:100740008091BB019091BC01A091BD01B091BE010F
:100750003091BA0123E0230F2D3720F40196A11D1B
:10076000B11D05C026E8230F0296A11DB11D2093DF
:10077000BA018093BB019093BC01A093BD01B093DB
:10078000BE018091BF019091C001A091C101B091C3
:10079000C2010196A11DB11D8093BF019093C001BC
:1007A000A093C101B093C201BF91AF919F918F916E
:1007B0003F912F910F900FBE0F901F9018952FB75C
:1007C000F8946091BB017091BC018091BD01909142
:1007D000BE012FBF08953FB7F8948091BF0190915B
:1007E000C001A091C101B091C20126B5A89B05C06E
:1007F0002F3F19F00196A11DB11D3FBF6627782F2D
:10080000892F9A2F620F711D811D911D42E0660F85
:10081000771F881F991F4A95D1F70895CF92DF92CD
:10082000EF92FF92CF93DF936B017C010E94EB0369
:10083000EB01C114D104E104F10479F00E94EB034F
:100840006C1B7D0B683E7340A0F381E0C81AD10891
:10085000E108F108C851DC4FECCFDF91CF91FF9058
:10086000EF90DF90CF900895789484B5826084BD36
:1008700084B5816084BD85B5826085BD85B58160A4
:1008800085BDEEE6F0E0808181608083E1E8F0E004
:100890001082808182608083808181608083E0E833
:1008A000F0E0808181608083E1EBF0E08081846012
:1008B0008083E0EBF0E0808181608083EAE7F0E014
:1008C0008081846080838081826080838081816078
:1008D00080838081806880831092C1000895833076
:1008E00081F028F4813099F08230A1F008958630AB
:1008F000A9F08730B9F08430D1F4809180008F7DE9
:1009000003C0809180008F7780938000089584B524
:100910008F7702C084B58F7D84BD08958091B0002B
:100920008F7703C08091B0008F7D8093B0000895D1
:10093000CF93DF9390E0FC01E458FF4F2491FC013A
:10094000E057FF4F8491882349F190E0880F991F69
:10095000FC01E854FF4FA591B49182559F4FFC01D3
:10096000C591D4919FB7611108C0F8948C912095DE
:1009700082238C93888182230AC0623051F4F894D8
:100980008C91322F309583238C938881822B88839E
:1009900004C0F8948C91822B8C939FBFDF91CF91F0
:1009A00008950F931F93CF93DF931F92CDB7DEB7B8
:1009B000282F30E0F901E859FF4F8491F901E458FC
:1009C000FF4F1491F901E057FF4F04910023C9F044
:1009D000882321F069830E946F046981E02FF0E091
:1009E000EE0FFF1FE255FF4FA591B4919FB7F8940A
:1009F0008C91611103C01095812301C0812B8C93D0
:100A00009FBF0F90DF91CF911F910F910895CF93CA
:100A1000DF93282F30E0F901E859FF4F8491F90165
:100A2000E458FF4FD491F901E057FF4FC491CC2314
:100A300091F081110E946F04EC2FF0E0EE0FFF1F88
:100A4000EC55FF4FA591B4912C912D2381E090E0BE
:100A500021F480E002C080E090E0DF91CF91089522
:100A60008E3008F08E5087702091040190E4299F09
:100A700090011124822B80937C0080917A00806405
:100A800080937A0080917A0086FDFCCF8091780077
:100A90002091790090E0922B08954F925F926F928F
:100AA0007F92AF92BF92CF92DF92EF92FF920F931D
:100AB0001F93CF93DF93CDB7DEB729013A01621BB5
:100AC000730B840B950B29893A894B895C892A1908
:100AD0003B094C095D09298B3A8B4B8B5C8B9B0145
:100AE000AC0169897A898B899C890E94BB08E418CA
:100AF000F50806091709A80197010E94ED082A0DBB
:100B00003B1D4C1D5D1DCA01B901DF91CF911F91A5
:100B10000F91FF90EF90DF90CF90BF90AF907F90BC
:100B20006F905F904F900895CF92DF92EF92FF9277
:100B30000F931F93CF93DF936C017A01EB01E60EC5
:100B4000F71E00E010E0CE15DF0561F06991D601D7
:100B5000ED91FC910190F081E02DC6010995080FFF
:100B6000191FF1CFC801DF91CF911F910F91FF9015
:100B7000EF90DF90CF9008956115710581F0DB0152
:100B80000D900020E9F7AD0141505109461B570B6C
:100B9000DC01ED91FC910280F381E02D099480E06D
:100BA00090E008950C94BC05DC01ED91FC9101905E
:100BB000F081E02D09940F931F93CF93DF93EC0105
:100BC0006DE00E94D4058C016AE0CE010E94D4053C
:100BD000800F911FDF91CF911F910F9108950F9377
:100BE0001F93CF93DF93EC010E94BC058C01CE01D3
:100BF0000E94DB05800F911FDF91CF911F910F9114
:100C000008958F929F92AF92BF92CF92DF92EF9210
:100C1000FF920F931F93CF93DF93CDB7DEB7A197CA
:100C20000FB6F894DEBF0FBECDBF7C01C42EE52FFA
:100C3000CB01D22E19A221E02D1510F02AE0D22EE0
:100C40008E010F5D1F4F8D2C912CA12CB12C6C2D82
:100C50007E2FA50194010E94CB088C2DD29E801975
:100C60001124015011098A3014F4805D01C0895C9F
:100C7000F8018083211531054105510521F0C22E6F
:100C8000E32FCA01E4CFB801C7010E94BC05A196B9
:100C90000FB6F894DEBF0FBECDBFDF91CF911F918D
:100CA0000F91FF90EF90DF90CF90BF90AF909F900B
:100CB0008F900895CF92DF92EF92FF920F931F9340
:100CC000CF93DF93EC016A017B012115310579F4A3
:100CD000E881F9810190F081E02D642FDF91CF91BF
:100CE0001F910F91FF90EF90DF90CF9009942A30E1
:100CF0003105E9F477FF1AC06DE20E94D4058C013A
:100D000044275527BA014C195D096E097F092AE06D
:100D1000CE010E940106800F911FDF91CF911F919C
:100D20000F91FF90EF90DF90CF9008952AE0B701E8
:100D3000A601CE01DF91CF911F910F91FF90EF900F
:100D4000DF90CF900C9401069A01AB01662757FD06
:100D50006095762F0C945A060F931F93CF93DF93D1
:100D6000EC019A01AB01662757FD6095762F0E9432
:100D70005A068C01CE010E94DB05800F911FDF9186
:100D8000CF911F910F9108950E9434040E943B025D
:100D9000CDE9D7E00E9476022097E1F30E949D07FB
:100DA000F9CFFC0124853585F901E05CFF4F808196
:100DB0009181329620813181821B930B8F73992709
:100DC0000895FC0184859585FC01E05CFF4F40811E
:100DD00051813296208131814217530741F00190B1
:100DE000F081E02DE80FF91F808190E008958FEFEA
:100DF0009FEF0895FC0184859585FC01E05CFF4F21
:100E0000408151813296208131814217530779F018
:100E1000A081B181A80FB91F8C91208131812F5FF2
:100E20003F4F2F7333273183208390E008958FEF56
:100E30009FEF0895FC0181A1882329F0A489B58939
:100E40008C9186FFFBCF11A20895CF93DF93FC0115
:100E500026853785D901A05CBF4F8D919C91119754
:100E600001968F739927E901CE5BDF4F4881598145
:100E700084179507D9F30D90BC91A02DA20FB31F35
:100E80006C93A685B785A05CBF4F11969C938E93FB
:100E9000A689B7892C9181E090E0078C02C0880F69
:100EA000991F0A94E2F7282B2C9381E081A30488F0
:100EB000F589E02D80818064808381E090E0DF917E
:100EC000CF91089508951F920F920FB60F9211249B
:100ED0002F933F934F938F939F93EF93FF93809123
:100EE000C00082FD1CC04091C600809169029091B3
:100EF0006A0201968F73992720916B0230916C02E0
:100F00008217930771F0E0916902F0916A02E75D40
:100F1000FD4F408390936A028093690202C08091E2
:100F2000C600FF91EF919F918F914F913F912F912B
:100F30000F900FBE0F901F90189583EC91E00E94C8
:100F4000D106892B11F00C94620708951F920F921D
:100F50000FB60F9211242F933F938F939F93EF938C
:100F6000FF932091250230912602809127029091D3
:100F700028022817390731F48091C1008F7D8093B2
:100F8000C10014C0E0912702F0912802EB51FE4FFE
:100F90002081809127029091280201968F739927D2
:100FA00090932802809327022093C600FF91EF912F
:100FB0009F918F913F912F910F900FBE0F901F9097
:100FC0001895CF92DF92EF92FF92CF93DF93EC01CF
:100FD0006A017B01411581EE580761057105F9F041
:100FE000EC89FD8981E090E008A002C0880F991F7C
:100FF0000A94E2F7808360E079E08DE390E0A70156
:1010000096010E94CB08215031094109510956959A
:10101000479537952795211580E1380798F0EC8999
:10102000FD89108260E874E88EE190E0A7019601E6
:101030000E94CB0821503109410951095695479525
:1010400037952795E889F9893083EA89FB892083D8
:1010500019A2EE89FF89408181E090E09C010C8C0F
:1010600002C0220F331F0A94E2F7422B4083EE891D
:10107000FF8940819C010D8C02C0220F331F0A940E
:10108000E2F7422B4083EE89FF8940819C010E8C60
:1010900002C0220F331F0A94E2F7422B4083EE89ED
:1010A000FF8920810F8C02C0880F991F0A94E2F7F4
:1010B000809582238083DF91CF91FF90EF90DF9026
:1010C000CF9008951092C6011092C50188EE93E06A
:1010D000A0E0B0E08093C7019093C801A093C9013C
:1010E000B093CA0186E891E09093C4018093C30154
:1010F00089E292E09093D0018093CF0185EE91E058
:101100009093D2018093D10185EC90E09093D4012B
:101110008093D30184EC90E09093D6018093D50125
:1011200080EC90E09093D8018093D70181EC90E01F
:101130009093DA018093D90182EC90E09093DC01E6
:101140008093DB0186EC90E09093DE018093DD01DB
:1011500084E08093DF0183E08093E00187E0809367
:10116000E10185E08093E20181E08093E30108954D
:10117000F8940C942C09DB018F939F930E940C0927
:10118000BF91AF91A29F800D911DA39F900DB29F23
:10119000900D11240895A1E21A2EAA1BBB1BFD017C
:1011A0000DC0AA1FBB1FEE1FFF1FA217B307E40746
:1011B000F50720F0A21BB30BE40BF50B661F771F9E
:1011C000881F991F1A9469F760957095809590957E
:1011D0009B01AC01BD01CF010895052E97FB1EF4C4
:1011E00000940E94040957FD07D00E94CB0807FC19
:1011F00003D04EF40C9404095095409530952195F8
:101200003F4F4F4F5F4F0895909580957095619532
:101210007F4F8F4F9F4F08950E941D09A59F900DEE
:10122000B49F900DA49F800D911D11240895EE0F81
:10123000FF1F0590F491E02D0994A29FB001B39F88
:10124000C001A39F700D811D1124911DB29F700DCF
:0C125000811D1124911D0895F894FFCF1A
:10125C0001000000017261773A200020206D61705E
:10126C003A200020206469673A0020207857617486
:10127C002821214F5645522121293A20002020783F
:10128C00576174286879737465726573293A200004
:10129C00202078576174282E2E2E6F6B2E2E2E291F
:1012AC003A2000526573657474696E6720537973C4
:1012BC0074656D2E2E2E005761746572696E672EE3
:1012CC002E2E00446F6E65205761746572696E67CF
:1012DC002E000000000025079405D106FA06E10651
:0212EC001A07DF
:00000001FF
