:100000000C9462000C948A000C948A000C948A0070
:100010000C948A000C948A000C948A000C948A0038
:100020000C948A000C948A000C948A000C948A0028
:100030000C948A000C948A000C948A000C948A0018
:100040000C94B0040C948A000C948B080C94CE0889
:100050000C948A000C948A000C948A000C948A00F8
:100060000C948A000C948A00000000070002010032
:100070000003040600000000000000000102040864
:100080001020408001020408102001020408102002
:10009000040404040404040402020202020203032E
:1000A00003030303000000002300260029000000D2
:1000B0000000250028002B0000000000240027007D
:1000C0002A008A0911241FBECFEFD8E0DEBFCDBFC2
:1000D00011E0A0E0B1E0ECEAF4E102C005900D927D
:1000E000AC3AB107D9F722E0ACEAB1E001C01D9209
:1000F000A939B207E1F710E0C4ECD0E004C02297C0
:10010000FE010E94410AC23CD107C9F70E94EC07D8
:100110000C94E0090C940000AF92BF92CF92DF9252
:10012000EF92FF920F931F938CE00E942206909310
:10013000DD018093DC018EE00E944B069093E50187
:100140008093E401BC01882777FD8095982F1F924A
:100150001F921F921F9224E6A22EB12CC12CD12CEB
:10016000EE24EA9413E0F12E00E010E020E030E00D
:10017000A9010E9468067093E3016093E2010F9069
:100180000F900F900F901F910F91FF90EF90DF90C5
:10019000CF90BF90AF9008950F931F9365E071E0EB
:1001A0008FEE91E00E94ED066091E4017091E5010F
:1001B0004AE050E08FEE91E00E94BF076BE071E0F3
:1001C0008FEE91E00E94ED066091E2017091E301F3
:1001D0004AE050E08FEE91E00E94BF0763E171E0DA
:1001E0008FEE91E00E94ED066091DC017091DD01DF
:1001F0004AE050E08FEE91E00E94BF078091D60167
:100200009091D7010197C9F56091C8017091C9011A
:100210008091CA019091CB010091B8011091B90170
:100220002091BA013091BB01601B710B820B930BC3
:1002300020E63AEE40E050E00E94F3092093AC0142
:100240003093AD014093AE015093AF016AE171E08C
:100250008FEE91E00E94ED064091AC015091AD010E
:100260006091AE017091AF012AE030E08FEE91E035
:100270000E94DF0767E271E00BC08091D20190918C
:10028000D301019719F46CE271E002C06FE371E0F1
:100290008FEE91E00E94ED066091D8017091D90136
:1002A0004AE050E08FEE91E01F910F910C94C70748
:1002B0008091E2019091E301883291056CF4809184
:1002C000D2019091D301892B99F481E090E0909331
:1002D000D3018093D2010895CD9754F08091D2013B
:1002E0009091D301019721F41092D3011092D20181
:1002F00008950F931F93CF93DF93C091D601D091B0
:10030000D701C130D10509F05DC08091C80190913D
:10031000C901A091CA01B091CB014091BC0150919B
:10032000BD016091BE017091BF018C019D01041B54
:10033000150B260B370BB901A801483E5340610548
:10034000710508F4C9C08093BC019093BD01A093CE
:10035000BE01B093BF018091D4019091D50161E0BD
:100360000197C1F486E00E94EC0561E085E00E94FF
:10037000EC0561E084E00E94EC0561E083E00E940E
:10038000EC0561E082E00E94EC051092D50110922C
:10039000D401A2C086E00E94EC0561E085E00E94E5
:1003A000EC0561E084E00E94EC0561E083E00E94DE
:1003B000EC0560E082E00E94EC05D093D501C0938B
:1003C000D4018AC08091E2019091E30180359105CA
:1003D000A4F060E086E00E94EC0560E085E00E9409
:1003E000EC0560E084E00E94EC0560E083E00E94A0
:1003F000EC0560E082E00E94EC058091E2019091C2
:10040000E301CC974497A0F461E086E00E94EC05FC
:1004100060E085E00E94EC0560E084E00E94EC056D
:1004200060E083E00E94EC0560E082E00E94EC0561
:100430008091E2019091E30188974497A0F461E0F4
:1004400086E00E94EC0561E085E00E94EC0560E03A
:1004500084E00E94EC0560E083E00E94EC0560E02F
:1004600082E00E94EC058091E2019091E3014497C3
:100470004497A0F461E086E00E94EC0561E085E02D
:100480000E94EC0561E084E00E94EC0560E083E0FE
:100490000E94EC0560E082E00E94EC058091E201A0
:1004A0009091E3014497C4F461E086E00E94EC057A
:1004B00061E085E00E94EC0561E084E00E94EC05CB
:1004C00061E083E00E94EC0560E082E0DF91CF9183
:1004D0001F910F910C94EC05DF91CF911F910F911B
:1004E000089540E052EC61E070E08FEE91E00E94F0
:1004F000090961E08DE00E94B30560E08CE00E9494
:10050000B30561E086E00E94B30561E085E00E94EA
:10051000B30561E084E00E94B30561E083E00E94DE
:10052000B30561E082E00E94B30562E089E00E94C9
:10053000B3051092D9011092D8011092D7011092F0
:10054000D6011092DB011092DA011092D3011092C1
:10055000D2011092D1011092D0011092CF011092CD
:10056000CE011092CD011092CC011092C4011092D4
:10057000C5011092C6011092C7011092C0011092DD
:10058000C1011092C2011092C3011092B8011092E1
:10059000B9011092BA011092BB011092B4011092ED
:1005A000B5011092B6011092B7011092B0011092ED
:1005B000B1011092B2011092B3016AE070E080E0E4
:1005C00090E00E9429056EE671E08FEE91E00E94B6
:1005D0000A0762E571E08FEE91E00E940A076EE67D
:1005E00071E08FEE91E00E940A076AE070E080E01F
:1005F00090E00E9429050E948C000E94CC000C947F
:100600007901EF92FF920F931F93CF930E94FA0408
:100610006093C8017093C9018093CA019093CB0184
:100620000E948C000E9479010E9458012091E201F1
:100630003091E301E091E001F091E1012E173F07D5
:10064000B1F18091DE019091DF012817390779F12E
:100650008091C8019091C901A091CA01B091CB01CC
:100660004091B4015091B5016091B6017091B7010C
:100670007C018D01E41AF50A060B170BB801A701DE
:10068000483E53406105710590F08093B40190930A
:10069000B501A093B601B093B701F093DF01E093E9
:1006A000DE013093E1012093E0010E94CC008091B3
:1006B000C8019091C901A091CA01B091CB014091AC
:1006C000C4015091C5016091C6017091C701841B9E
:1006D000950BA60BB70B803C944DA140B10520F0C3
:1006E0001092DB011092DA0189E00E94220640910B
:1006F000C8015091C9016091CA017091CB0120914C
:10070000D0013091D101892B41F5232B61F48091E7
:10071000CE019091CF01892B31F481E090E090934C
:10072000D1018093D0018091B0019091B101A0914D
:10073000B201B091B3017A018B01E81AF90A0A0BF0
:100740001B0BD801C70180349F41A105B10510F1F1
:100750001092CF011092CE011DC021303105D1F48D
:100760008091CE019091CF01892BA1F41092D101FB
:100770001092D0013093CF012093CE013093CD0160
:100780002093CC014093B0015093B1016093B2012A
:100790007093B3018091D6019091D7012091CC0143
:1007A0003091CD01892B21F02130310509F0B8C0FD
:1007B0008091C0019091C101A091C201B091C3018B
:1007C0007A018B01E81AF90A0A0B1B0BD801C70141
:1007D00080389E4EA643B10560F01092D901109268
:1007E000D8014093C0015093C1016093C20170933E
:1007F000C3012130310571F08091D2019091D30174
:10080000019709F088C08091DA019091DB01892B72
:1008100009F081C066E671E08FEE91E00E94ED067E
:1008200061E08DE00E94EC0568E57BE180E090E00E
:100830000E94290560E08DE00E94EC0581E090E0D7
:100840009093DB018093DA018091C8019091C901F6
:10085000A091CA01B091CB018093C4019093C501CE
:10086000A093C601B093C7018091CC019091CD01B6
:10087000019779F41092CD011092CC011092D3011E
:100880001092D2011092D7011092D60162E771E066
:100890000BC08091D8019091D90101969093D90114
:1008A0008093D80168E871E08FEE91E00E940A071A
:1008B0008091D8019091D901823091058CF480917A
:1008C000C8019091C901A091CA01B091CB01809358
:1008D000C0019093C101A093C201B093C30118C09D
:1008E0000597B4F081E090E09093D7018093D60112
:1008F0008091C8019091C901A091CA01B091CB012A
:100900008093B8019093B901A093BA01B093BB0151
:100910000E94CC001AC060E08DE00E94EC0515C07A
:100920008091B8019091B901A091BA01B091BB0139
:10093000481B590B6A0B7B0B40385E4E66437105B2
:1009400020F01092D7011092D60164E070E080E0B0
:1009500090E0CF911F910F91FF90EF900C9429059B
:100960001F920F920FB60F9211242F933F938F93E4
:100970009F93AF93BF938091E7019091E801A0917D
:10098000E901B091EA013091E60123E0230F2D3710
:1009900020F40196A11DB11D05C026E8230F029683
:1009A000A11DB11D2093E6018093E7019093E8011A
:1009B000A093E901B093EA018091EB019091EC01E1
:1009C000A091ED01B091EE010196A11DB11D8093A2
:1009D000EB019093EC01A093ED01B093EE01BF9178
:1009E000AF919F918F913F912F910F900FBE0F90DC
:1009F0001F9018952FB7F8946091E7017091E80166
:100A00008091E9019091EA012FBF08953FB7F894D2
:100A10008091EB019091EC01A091ED01B091EE017C
:100A200026B5A89B05C02F3F19F00196A11DB11D49
:100A30003FBF6627782F892F9A2F620F711D811D66
:100A4000911D42E0660F771F881F991F4A95D1F7C5
:100A50000895CF92DF92EF92FF92CF93DF936B01D5
:100A60007C010E940605EB01C114D104E104F104EC
:100A700079F00E9406056C1B7D0B683E7340A0F365
:100A800081E0C81AD108E108F108C851DC4FECCF69
:100A9000DF91CF91FF90EF90DF90CF900895789401
:100AA00084B5826084BD84B5816084BD85B5826073
:100AB00085BD85B5816085BDEEE6F0E08081816011
:100AC0008083E1E8F0E01082808182608083808111
:100AD00081608083E0E8F0E0808181608083E1EBE9
:100AE000F0E0808184608083E0EBF0E080818160D1
:100AF0008083EAE7F0E08081846080838081826087
:100B0000808380818160808380818068808310926F
:100B1000C1000895833081F028F4813099F082304B
:100B2000A1F008958630A9F08730B9F08430D1F46F
:100B3000809180008F7D03C0809180008F778093AB
:100B40008000089584B58F7702C084B58F7D84BD01
:100B500008958091B0008F7703C08091B0008F7DA1
:100B60008093B0000895CF93DF9390E0FC01E458A8
:100B7000FF4F2491FC01E057FF4F8491882349F1F6
:100B800090E0880F991FFC01E854FF4FA591B491A4
:100B900082559F4FFC01C591D4919FB7611108C048
:100BA000F8948C91209582238C93888182230AC0AB
:100BB000623051F4F8948C91322F309583238C93CA
:100BC0008881822B888304C0F8948C91822B8C932B
:100BD0009FBFDF91CF9108950F931F93CF93DF9322
:100BE0001F92CDB7DEB7282F30E0F901E859FF4F4B
:100BF0008491F901E458FF4F1491F901E057FF4F38
:100C000004910023C9F0882321F069830E948A059A
:100C10006981E02FF0E0EE0FFF1FE255FF4FA59135
:100C2000B4919FB7F8948C91611103C01095812302
:100C300001C0812B8C939FBF0F90DF91CF911F91AB
:100C40000F910895CF93DF93282F30E0F901E859F1
:100C5000FF4F8491F901E458FF4FD491F901E05717
:100C6000FF4FC491CC2391F081110E948A05EC2F93
:100C7000F0E0EE0FFF1FEC55FF4FA591B4912C91C2
:100C80002D2381E090E021F480E002C080E090E03C
:100C9000DF91CF9108958E3008F08E5087702091AB
:100CA000040190E4299F90011124822B80937C0001
:100CB00080917A00806480937A0080917A0086FD2A
:100CC000FCCF809178002091790090E0922B0895DC
:100CD0004F925F926F927F92AF92BF92CF92DF92CC
:100CE000EF92FF920F931F93CF93DF93CDB7DEB7B1
:100CF00029013A01621B730B840B950B29893A89F0
:100D00004B895C892A193B094C095D09298B3A8B6F
:100D10004B8B5C8B9B01AC0169897A898B899C899F
:100D20000E94E309E418F50806091709A8019701CC
:100D30000E94150A2A0D3B1D4C1D5D1DCA01B901FB
:100D4000DF91CF911F910F91FF90EF90DF90CF90A7
:100D5000BF90AF907F906F905F904F900895CF922B
:100D6000DF92EF92FF920F931F93CF93DF936C016B
:100D70007A01EB01E60EF71E00E010E0CE15DF056C
:100D800061F06991D601ED91FC910190F081E02D27
:100D9000C6010995080F191FF1CFC801DF91CF9146
:100DA0001F910F91FF90EF90DF90CF900895611504
:100DB000710581F0DB010D900020E9F7AD01415094
:100DC0005109461B570BDC01ED91FC910280F38128
:100DD000E02D099480E090E008950C94D706DC01A2
:100DE000ED91FC910190F081E02D09940F931F93F8
:100DF000CF93DF93EC016DE00E94EF068C016AE077
:100E0000CE010E94EF06800F911FDF91CF911F91BD
:100E10000F9108950F931F93CF93DF93EC010E94DE
:100E2000D7068C01CE010E94F606800F911FDF913C
:100E3000CF911F910F9108958F929F92AF92BF9281
:100E4000CF92DF92EF92FF920F931F93CF93DF9396
:100E5000CDB7DEB7A1970FB6F894DEBF0FBECDBFFA
:100E60007C01C42EE52FCB01D22E19A221E02D1535
:100E700010F02AE0D22E8E010F5D1F4F8D2C912C89
:100E8000A12CB12C6C2D7E2FA50194010E94F30999
:100E90008C2DD29E80191124015011098A3014F42E
:100EA000805D01C0895CF801808321153105410511
:100EB000510521F0C22EE32FCA01E4CFB801C701CA
:100EC0000E94D706A1960FB6F894DEBF0FBECDBF25
:100ED000DF91CF911F910F91FF90EF90DF90CF9016
:100EE000BF90AF909F908F900895CF92DF92EF9236
:100EF000FF920F931F93CF93DF93EC016A017B0165
:100F00002115310579F4E881F9810190F081E02D16
:100F1000642FDF91CF911F910F91FF90EF90DF90A1
:100F2000CF9009942A303105E9F477FF1AC06DE2B9
:100F30000E94EF068C0144275527BA014C195D0920
:100F40006E097F092AE0CE010E941C07800F911FC5
:100F5000DF91CF911F910F91FF90EF90DF90CF9095
:100F600008952AE0B701A601CE01DF91CF911F912C
:100F70000F91FF90EF90DF90CF900C941C079A0197
:100F8000AB01662757FD6095762F0C9475070F937C
:100F90001F93CF93DF93EC019A01AB01662757FDB6
:100FA0006095762F0E9475078C01CE010E94F6068F
:100FB000800F911FDF91CF911F910F9108952115FF
:100FC000310541F4DC01ED91FC910190F081E02DBF
:100FD000642F09940C941C070E944F050E94710213
:100FE000C5ECD8E00E9401032097E1F30E94C508F8
:100FF000F9CFFC0124853585F901E05CFF4F808144
:101000009181329620813181821B930B8F739927B6
:101010000895FC0184859585FC01E05CFF4F4081CB
:1010200051813296208131814217530741F001905E
:10103000F081E02DE80FF91F808190E008958FEF97
:101040009FEF0895FC0184859585FC01E05CFF4FCE
:10105000408151813296208131814217530779F0C6
:10106000A081B181A80FB91F8C91208131812F5FA0
:101070003F4F2F7333273183208390E008958FEF04
:101080009FEF0895FC0181A1882329F0A489B589E7
:101090008C9186FFFBCF11A20895CF93DF93FC01C3
:1010A00026853785D901A05CBF4F8D919C91119702
:1010B00001968F739927E901CE5BDF4F48815981F3
:1010C00084179507D9F30D90BC91A02DA20FB31FE3
:1010D0006C93A685B785A05CBF4F11969C938E93A9
:1010E000A689B7892C9181E090E0078C02C0880F17
:1010F000991F0A94E2F7282B2C9381E081A304889E
:10110000F589E02D80818064808381E090E0DF912B
:10111000CF91089508951F920F920FB60F92112448
:101120002F933F934F938F939F93EF93FF938091D0
:10113000C00082FD1CC04091C60080919502909134
:10114000960201968F739927209197023091980209
:101150008217930771F0E0919502F0919602EB5A95
:10116000FD4F4083909396028093950202C0809138
:10117000C600FF91EF919F918F914F913F912F91D9
:101180000F900FBE0F901F9018958FEE91E00E9468
:10119000F907892B11F00C948A0808951F920F9279
:1011A0000FB60F9211242F933F938F939F93EF933A
:1011B000FF932091510230915202809153029091FD
:1011C00054022817390731F48091C1008F7D809334
:1011D000C10014C0E0915302F0915402EF5EFD4F44
:1011E0002081809153029091540201968F73992728
:1011F00090935402809353022093C600FF91EF9185
:101200009F918F913F912F910F900FBE0F901F9044
:101210001895CF92DF92EF92FF92CF93DF93EC017C
:101220006A017B01411581EE580761057105F9F0EE
:10123000EC89FD8981E090E008A002C0880F991F29
:101240000A94E2F7808360E079E08DE390E0A70103
:1012500096010E94F309215031094109510956951F
:10126000479537952795211580E1380798F0EC8947
:10127000FD89108260E874E88EE190E0A701960194
:101280000E94F309215031094109510956954795AA
:1012900037952795E889F9893083EA89FB89208386
:1012A00019A2EE89FF89408181E090E09C010C8CBD
:1012B00002C0220F331F0A94E2F7422B4083EE89CB
:1012C000FF8940819C010D8C02C0220F331F0A94BC
:1012D000E2F7422B4083EE89FF8940819C010E8C0E
:1012E00002C0220F331F0A94E2F7422B4083EE899B
:1012F000FF8920810F8C02C0880F991F0A94E2F7A2
:10130000809582238083DF91CF91FF90EF90DF90D3
:10131000CF9008951092F2011092F10188EE93E0BF
:10132000A0E0B0E08093F3019093F401A093F50165
:10133000B093F60180EA91E09093F0018093EF0181
:1013400085E592E09093FC018093FB0181E192E0BE
:101350009093FE018093FD0185EC90E09093000254
:101360008093FF0184EC90E090930202809301024D
:1013700080EC90E0909304028093030281EC90E073
:10138000909306028093050282EC90E0909308020D
:101390008093070286EC90E090930A028093090202
:1013A00084E080930B0283E080930C0287E08093BB
:1013B0000D0285E080930E0281E080930F02089574
:1013C000F8940C94540ADB018F939F930E94340A83
:1013D000BF91AF91A29F800D911DA39F900DB29FD1
:1013E000900D11240895A1E21A2EAA1BBB1BFD012A
:1013F0000DC0AA1FBB1FEE1FFF1FA217B307E407F4
:10140000F50720F0A21BB30BE40BF50B661F771F4B
:10141000881F991F1A9469F760957095809590952B
:101420009B01AC01BD01CF010895052E97FB1EF471
:1014300000940E942C0A57FD07D00E94F30907FC74
:1014400003D04EF40C942C0A50954095309521957C
:101450003F4F4F4F5F4F08959095809570956195E0
:101460007F4F8F4F9F4F08950E94450AA59F900D73
:10147000B49F900DA49F800D911D11240895EE0F2F
:10148000FF1F0590F491E02D0994A29FB001B39F36
:10149000C001A39F700D811D1124911DB29F700D7D
:0C14A000811D1124911D0895F894FFCFC8
:1014AC0001000000017261773A200020206D61700C
:1014BC003A200020206469673A0020207857617434
:1014CC00284F5645523D006D293A20002020785770
:1014DC006174286879737465726573293A200020E9
:1014EC002078576174282E2E2E6F6B2E2E2E293AB3
:1014FC002000526573657474696E67205379737438
:10150C00656D2E2E2E005761746572696E672E2ED6
:10151C002E00446F6E65204D616E75616C205761B5
:10152C00746572696E672E00446F6E652041757428
:10153C006F205761746572696E672E0000000000A1
:0C154C004D08AF06F90722080908420804
:00000001FF
