:100000000C9462000C948A000C948A000C948A0070
:100010000C948A000C948A000C948A000C948A0038
:100020000C948A000C948A000C948A000C948A0028
:100030000C948A000C948A000C948A000C948A0018
:100040000C9469030C948A000C9437070C947A077B
:100050000C948A000C948A000C948A000C948A00F8
:100060000C948A000C948A00000000070002010032
:100070000003040600000000000000000102040864
:100080001020408001020408102001020408102002
:10009000040404040404040402020202020203032E
:1000A00003030303000000002300260029000000D2
:1000B0000000250028002B0000000000240027007D
:1000C0002A00360811241FBECFEFD8E0DEBFCDBF17
:1000D00011E0A0E0B1E0E4E0F2E102C005900D9291
:1000E000A83AB107D9F722E0A8EAB1E001C01D9211
:1000F000AD37B207E1F710E0C4ECD0E004C02297BE
:10010000FE010E94ED08C23CD107C9F70E94980683
:100110000C948C080C940000AF92BF92CF92DF92A7
:10012000EF92FF920F931F938CE00E94DB04909359
:10013000C3018093C2018EE00E9404059093C9011F
:100140008093C801BC01882777FD8095982F1F9266
:100150001F921F921F9224E6A22EB12CC12CD12CEB
:10016000EE24EA9413E0F12E00E010E020E030E00D
:10017000A9010E9421057093C7016093C6010F90E9
:100180000F900F900F901F910F91FF90EF90DF90C5
:10019000CF90BF90AF90089565E071E083ED91E05E
:1001A0000E94A6056091C8017091C9014AE050E023
:1001B00083ED91E00E9478066FE071E083ED91E0BD
:1001C0000E94A6056091C6017091C7014AE050E007
:1001D00083ED91E00E9478066BE171E083ED91E0A0
:1001E0000E94A6056091C2017091C3014AE050E0EF
:1001F00083ED91E00E9478066FE271E083ED91E07B
:100200000E94A6056091BE017091BF014AE050E0D6
:1002100083ED91E00E9480068091BC019091BD0128
:10022000019731F46FE371E083ED91E00C94A60542
:100230000895CF92DF92EF92FF920F931F93CF9387
:10024000DF93C091BC01D091BD01C130D10509F04F
:1002500055C00091AC011091AD012091AE013091DB
:10026000AF016B017C01C01AD10AE20AF30A48EE21
:10027000C41643E0D406E104F10408F4CDC0609351
:10028000AC017093AD018093AE019093AF0180916A
:10029000BA019091BB0161E00197C1F486E00E9430
:1002A000A50461E085E00E94A50461E084E00E946D
:1002B000A50461E083E00E94A50461E082E00E9461
:1002C000A5041092BB011092BA01A6C086E00E945C
:1002D000A50461E085E00E94A50461E084E00E943D
:1002E000A50461E083E00E94A50460E082E00E9432
:1002F000A504D093BB01C093BA018EC08091C60102
:100300009091C70180359105A4F060E086E00E94DD
:10031000A50460E085E00E94A50460E084E00E94FE
:10032000A50460E083E00E94A50460E082E00E94F2
:10033000A5048091C6019091C701CC974497A0F481
:1003400061E086E00E94A50460E085E00E94A504CB
:1003500060E084E00E94A50460E083E00E94A504C0
:1003600060E082E00E94A5048091C6019091C701DF
:1003700088974497A0F461E086E00E94A50461E0BC
:1003800085E00E94A50460E084E00E94A50460E08E
:1003900083E00E94A50460E082E00E94A5048091B1
:1003A000C6019091C70144974497A0F461E086E0AC
:1003B0000E94A50461E085E00E94A50461E084E05C
:1003C0000E94A50460E083E00E94A50460E082E052
:1003D0000E94A5048091C6019091C7014497E4F45E
:1003E00061E086E00E94A50461E085E00E94A5042A
:1003F00061E084E00E94A50461E083E00E94A5041E
:1004000060E082E0DF91CF911F910F91FF90EF901C
:10041000DF90CF900C94A504DF91CF911F910F91A5
:10042000FF90EF90DF90CF90089540E855E260E0B4
:1004300070E083ED91E00E94B50761E08DE00E94DD
:100440006C0460E08CE00E946C0461E086E00E9435
:100450006C0461E085E00E946C0461E084E00E942D
:100460006C0461E083E00E946C0461E082E00E9421
:100470006C041092BF011092BE011092BD01109247
:10048000BC010E948C000E94CC0060E070E0CB01B7
:100490000C941901CF92DF92EF92FF920E94B30366
:1004A0006B017C010E948C00C701B6010E941901FA
:1004B0008091C6019091C7012091C4013091C5017E
:1004C0008217930731F09093C5018093C4010E9475
:1004D000CC008091B4019091B501A091B601B0918A
:1004E000B701A7019601281B390B4A0B5B0BDA01F8
:1004F000C901803C944DA140B10570F0C092B40197
:10050000D092B501E092B601F092B7011092C1010C
:100510001092C0010E94CC008091BC019091BD015D
:10052000892B09F0B4C08091B0019091B101A091E4
:10053000B201B091B301A7019601281B390B4A0BF8
:100540005B0BDA01C90180389E4EA643B10560F00D
:100550001092BF011092BE01C092B001D092B101C1
:10056000E092B201F092B3018091BE019091BF017F
:100570000F97A4F081E090E09093BD018093BC01BF
:10058000C092A801D092A901E092AA01F092AB0119
:100590006AE571E083ED91E00E94C3058091C60198
:1005A0009091C70188973CF08091B8019091B90172
:1005B000019709F067C08091C0019091C101892B1A
:1005C00009F060C06EE671E083ED91E00E94A6053F
:1005D0008091C6019091C701CC973CF481E090E0F6
:1005E0009093B9018093B80104C01092B9011092A0
:1005F000B8016AE771E083ED91E00E94A605609181
:10060000B8017091B9014AE050E083ED91E00E9499
:10061000800661E08DE00E94A50468E57BE180E052
:1006200090E00E94E20360E08DE00E94A50468E88B
:1006300071E083ED91E00E94C30581E090E090932A
:10064000C1018093C0016091BE017091BF016F5FD5
:100650007F4F7093BF016093BE014AE050E083ED8D
:1006600091E00E9480068091BE019091BF010297A7
:1006700034F5C092B001D092B101E092B201F09293
:10068000B3011DC060E08DE00E94A50418C08091F8
:10069000A8019091A901A091AA01B091AB01C81A3B
:1006A000D90AEA0AFB0A40E8C4164EEED40646E32D
:1006B000E406F10420F01092BD011092BC0162E04A
:1006C00070E080E090E0FF90EF90DF90CF900C948E
:1006D000E2031F920F920FB60F9211242F933F93B4
:1006E0008F939F93AF93BF938091CB019091CC0157
:1006F000A091CD01B091CE013091CA0123E0230F2A
:100700002D3720F40196A11DB11D05C026E8230F49
:100710000296A11DB11D2093CA018093CB01909335
:10072000CC01A093CD01B093CE018091CF019091E7
:10073000D001A091D101B091D2010196A11DB11DAE
:100740008093CF019093D001A093D101B093D201B7
:10075000BF91AF919F918F913F912F910F900FBEBD
:100760000F901F9018952FB7F8946091CB0170915E
:10077000CC018091CD019091CE012FBF08953FB75C
:10078000F8948091CF019091D001A091D101B091C6
:10079000D20126B5A89B05C02F3F19F00196A11DD7
:1007A000B11D3FBF6627782F892F9A2F620F711DC9
:1007B000811D911D42E0660F771F881F991F4A9582
:1007C000D1F70895CF92DF92EF92FF92CF93DF930C
:1007D0006B017C010E94BF03EB01C114D104E10451
:1007E000F10479F00E94BF036C1B7D0B683E7340DF
:1007F000A0F381E0C81AD108E108F108C851DC4F24
:10080000ECCFDF91CF91FF90EF90DF90CF900895E4
:10081000789484B5826084BD84B5816084BD85B5DB
:10082000826085BD85B5816085BDEEE6F0E08081A2
:1008300081608083E1E8F0E01082808182608083C3
:10084000808181608083E0E8F0E080818160808346
:10085000E1EBF0E0808184608083E0EBF0E0808178
:1008600081608083EAE7F0E080818460808380811A
:1008700082608083808181608083808180688083C2
:100880001092C1000895833081F028F4813099F0EE
:100890008230A1F008958630A9F08730B9F0843015
:1008A000D1F4809180008F7D03C0809180008F778C
:1008B00080938000089584B58F7702C084B58F7DC2
:1008C00084BD08958091B0008F7703C08091B000FF
:1008D0008F7D8093B0000895CF93DF9390E0FC016B
:1008E000E458FF4F2491FC01E057FF4F8491882387
:1008F00049F190E0880F991FFC01E854FF4FA59142
:10090000B49182559F4FFC01C591D4919FB761115D
:1009100008C0F8948C91209582238C93888182233F
:100920000AC0623051F4F8948C91322F30958323B1
:100930008C938881822B888304C0F8948C91822BBD
:100940008C939FBFDF91CF9108950F931F93CF9307
:10095000DF931F92CDB7DEB7282F30E0F901E859B9
:10096000FF4F8491F901E458FF4F1491F901E057CA
:10097000FF4F04910023C9F0882321F069830E946E
:1009800043046981E02FF0E0EE0FFF1FE255FF4FB7
:10099000A591B4919FB7F8948C91611103C0109503
:1009A000812301C0812B8C939FBF0F90DF91CF914A
:1009B0001F910F910895CF93DF93282F30E0F90115
:1009C000E859FF4F8491F901E458FF4FD491F901A0
:1009D000E057FF4FC491CC2391F081110E94430452
:1009E000EC2FF0E0EE0FFF1FEC55FF4FA591B491F7
:1009F0002C912D2381E090E021F480E002C080E082
:100A000090E0DF91CF9108958E3008F08E5087707E
:100A10002091040190E4299F90011124822B80935E
:100A20007C0080917A00806480937A0080917A00C3
:100A300086FDFCCF809178002091790090E0922B88
:100A400008954F925F926F927F92AF92BF92CF9232
:100A5000DF92EF92FF920F931F93CF93DF93CDB767
:100A6000DEB729013A01621B730B840B950B2989B0
:100A70003A894B895C892A193B094C095D09298B04
:100A80003A8B4B8B5C8B9B01AC0169897A898B8992
:100A90009C890E948F08E418F50806091709A80127
:100AA00097010E94C1082A0D3B1D4C1D5D1DCA0106
:100AB000B901DF91CF911F910F91FF90EF90DF90DF
:100AC000CF90BF90AF907F906F905F904F900895C0
:100AD000CF92DF92EF92FF920F931F93CF93DF930A
:100AE0006C017A01EB01E60EF71E00E010E0CE1576
:100AF000DF0561F06991D601ED91FC910190F081E3
:100B0000E02DC6010995080F191FF1CFC801DF912B
:100B1000CF911F910F91FF90EF90DF90CF900895AC
:100B20006115710581F0DB010D900020E9F7AD0141
:100B300041505109461B570BDC01ED91FC9102809D
:100B4000F381E02D099480E090E008950C949005E5
:100B5000DC01ED91FC910190F081E02D09940F935F
:100B60001F93CF93DF93EC016DE00E94A8058C01E9
:100B70006AE0CE010E94A805800F911FDF91CF91FE
:100B80001F910F9108950F931F93CF93DF93EC0163
:100B90000E9490058C01CE010E94AF05800F911F2D
:100BA000DF91CF911F910F9108958F929F92AF92F5
:100BB000BF92CF92DF92EF92FF920F931F93CF934A
:100BC000DF93CDB7DEB7A1970FB6F894DEBF0FBEA7
:100BD000CDBF7C01C42EE52FCB01D22E19A221E07E
:100BE0002D1510F02AE0D22E8E010F5D1F4F8D2C97
:100BF000912CA12CB12C6C2D7E2FA50194010E946B
:100C00009F088C2DD29E80191124015011098A3021
:100C100014F4805D01C0895CF801808321153105E1
:100C20004105510521F0C22EE32FCA01E4CFB801DE
:100C3000C7010E949005A1960FB6F894DEBF0FBEC3
:100C4000CDBFDF91CF911F910F91FF90EF90DF907B
:100C5000CF90BF90AF909F908F900895CF92DF92EA
:100C6000EF92FF920F931F93CF93DF93EC016A01F2
:100C70007B012115310579F4E881F9810190F0813A
:100C8000E02D642FDF91CF911F910F91FF90EF9096
:100C9000DF90CF9009942A303105E9F477FF1AC02C
:100CA0006DE20E94A8058C0144275527BA014C1912
:100CB0005D096E097F092AE0CE010E94D505800FEB
:100CC000911FDF91CF911F910F91FF90EF90DF90D7
:100CD000CF9008952AE0B701A601CE01DF91CF9110
:100CE0001F910F91FF90EF90DF90CF900C94D5055E
:100CF0009A01AB01662757FD6095762F0C942E065E
:100D00000F931F93CF93DF93EC019A01AB016627FA
:100D100057FD6095762F0E942E068C01CE010E9411
:100D2000AF05800F911FDF91CF911F910F91089513
:100D30000E9408040E941502C1E7D7E00E944A02FF
:100D40002097E1F30E947107F9CFFC0124853585D6
:100D5000F901E05CFF4F80819181329620813181E1
:100D6000821B930B8F7399270895FC0184859585C9
:100D7000FC01E05CFF4F408151813296208131813E
:100D80004217530741F00190F081E02DE80FF91F61
:100D9000808190E008958FEF9FEF0895FC01848596
:100DA0009585FC01E05CFF4F4081518132962081A6
:100DB00031814217530779F0A081B181A80FB91F83
:100DC0008C91208131812F5F3F4F2F7333273183E7
:100DD000208390E008958FEF9FEF0895FC0181A19B
:100DE000882329F0A489B5898C9186FFFBCF11A2B5
:100DF0000895CF93DF93FC0126853785D901A05C48
:100E0000BF4F8D919C91119701968F739927E9019E
:100E1000CE5BDF4F4881598184179507D9F30D9038
:100E2000BC91A02DA20FB31F6C93A685B785A05CC3
:100E3000BF4F11969C938E93A689B7892C9181E020
:100E400090E0078C02C0880F991F0A94E2F7282BC4
:100E50002C9381E081A30488F589E02D8081806452
:100E6000808381E090E0DF91CF91089508951F92F3
:100E70000F920FB60F9211242F933F934F938F939E
:100E80009F93EF93FF938091C00082FD1CC040911F
:100E9000C6008091790290917A0201968F7399270A
:100EA00020917B0230917C028217930771F0E091D0
:100EB0007902F0917A02E75CFD4F408390937A02C9
:100EC0008093790202C08091C600FF91EF919F91BB
:100ED0008F914F913F912F910F900FBE0F901F90C8
:100EE000189583ED91E00E94A506892B11F00C94D2
:100EF000360708951F920F920FB60F9211242F9369
:100F00003F938F939F93EF93FF93209135023091FE
:100F1000360280913702909138022817390731F450
:100F20008091C1008F7D8093C10014C0E091370291
:100F3000F0913802EB50FE4F208180913702909162
:100F4000380201968F739927909338028093370265
:100F50002093C600FF91EF919F918F913F912F9128
:100F60000F900FBE0F901F901895CF92DF92EF92C7
:100F7000FF92CF93DF93EC016A017B01411581EE73
:100F8000580761057105F9F0EC89FD8981E090E071
:100F900008A002C0880F991F0A94E2F7808360E0DE
:100FA00079E08DE390E0A70196010E949F0821500F
:100FB00031094109510956954795379527952115CE
:100FC00080E1380798F0EC89FD89108260E874E8C8
:100FD0008EE190E0A70196010E949F0821503109FF
:100FE000410951095695479537952795E889F9891B
:100FF0003083EA89FB89208319A2EE89FF89408129
:1010000081E090E09C010C8C02C0220F331F0A94F7
:10101000E2F7422B4083EE89FF8940819C010D8CD1
:1010200002C0220F331F0A94E2F7422B4083EE895D
:10103000FF8940819C010E8C02C0220F331F0A944D
:10104000E2F7422B4083EE89FF8920810F8C02C09A
:10105000880F991F0A94E2F7809582238083DF919D
:10106000CF91FF90EF90DF90CF9008951092D6012E
:101070001092D50188EE93E0A0E0B0E08093D70114
:101080009093D801A093D901B093DA018BE991E054
:101090009093D4018093D30189E392E09093E0018F
:1010A0008093DF0185EF91E09093E2018093E1016D
:1010B00085EC90E09093E4018093E30184EC90E070
:1010C0009093E6018093E50180EC90E09093E80135
:1010D0008093E70181EC90E09093EA018093E9012D
:1010E00082EC90E09093EC018093EB0186EC90E031
:1010F0009093EE018093ED0184E08093EF0183E013
:101100008093F00187E08093F10185E08093F20104
:1011100081E08093F3010895F8940C940009DB01B9
:101120008F939F930E94E008BF91AF91A29F800D83
:10113000911DA39F900DB29F900D11240895A1E2DF
:101140001A2EAA1BBB1BFD010DC0AA1FBB1FEE1F41
:10115000FF1FA217B307E407F50720F0A21BB30B8C
:10116000E40BF50B661F771F881F991F1A9469F708
:1011700060957095809590959B01AC01BD01CF0164
:101180000895052E97FB1EF400940E94D80857FD81
:1011900007D00E949F0807FC03D04EF40C94D80897
:1011A00050954095309521953F4F4F4F5F4F089593
:1011B00090958095709561957F4F8F4F9F4F0895C3
:1011C0000E94F108A59F900DB49F900DA49F800DE3
:1011D000911D11240895EE0FFF1F0590F491E02D4D
:1011E0000994A29FB001B39FC001A39F700D811D00
:1011F0001124911DB29F700D811D1124911D089520
:04120000F894FFCF90
:10120400010000000173656E736F72203D200009B8
:10121400206F7574707574203D200009206469671F
:101224006974616C206F7574707574203D200009B9
:10123400207761746572636F756E74203D200021A0
:10124400214F766572576174657220466C61672020
:10125400697320747275652121002121214F7665FF
:10126400725761746572696E67212121210057618B
:10127400746572696E672E2E2E00687973746572B8
:1012840065736973203D2000446F6E652057617457
:101294006572696E672E0000000000F9066805A5F6
:0812A40006CE06B506EE0600B9
:00000001FF
