:100000000C9462000C948A000C948A000C948A0070
:100010000C948A000C948A000C948A000C948A0038
:100020000C948A000C948A000C948A000C948A0028
:100030000C948A000C948A000C948A000C948A0018
:100040000C94A9030C948A000C9477070C94BA07BB
:100050000C948A000C948A000C948A000C948A00F8
:100060000C948A000C948A00000000070002010032
:100070000003040600000000000000000102040864
:100080001020408001020408102001020408102002
:10009000040404040404040402020202020203032E
:1000A00003030303000000002300260029000000D2
:1000B0000000250028002B0000000000240027007D
:1000C0002A00760811241FBECFEFD8E0DEBFCDBFD7
:1000D00011E0A0E0B1E0E4E8F2E102C005900D9289
:1000E000A638B107D9F722E0A6E8B1E001C01D9219
:1000F000A136B207E1F710E0C4ECD0E004C02297CB
:10010000FE010E942D09C23CD107C9F70E94D80602
:100110000C94CC080C940000AF92BF92CF92DF9267
:10012000EF92FF920F931F938CE00E941B05909318
:10013000A5018093A4018EE00E9444059093AD0137
:100140008093AC01BC01882777FD8095982F1F9282
:100150001F921F921F9224E6A22EB12CC12CD12CEB
:10016000EE24EA9413E0F12E00E010E020E030E00D
:10017000A9010E9461057093AB016093AA010F90E1
:100180000F900F900F901F910F91FF90EF90DF90C5
:10019000CF90BF90AF90089565E071E087EB91E05C
:1001A0000E94E6056091AC017091AD014AE050E01B
:1001B00087EB91E00E94B8066BE071E087EB91E07D
:1001C0000E94E6056091AA017091AB014AE050E0FF
:1001D00087EB91E00E94B80663E171E087EB91E064
:1001E0000E94E6056091A4017091A5014AE050E0EB
:1001F00087EB91E00E94B80680919E0190919F014B
:10020000019719F46AE171E002C069E271E087EBDD
:1002100091E00E94E6056091A0017091A1014AE081
:1002200050E087EB91E00C94C0068091AA01909178
:10023000AB01883291056CF480919A0190919B01F9
:10024000892B19F581E090E090939B0180939A01AE
:100250000CC0CD97D4F080919A0190919B010197A9
:10026000A1F410929B0110929A0168E371E087EB70
:1002700091E00E94E60560919A0170919B014AE02D
:1002800050E087EB91E00C94C0060895CF92DF9286
:10029000EF92FF920F931F93CF93DF93C0919E0134
:1002A000D0919F01C130D10509F055C000918E0158
:1002B00010918F0120919001309191016B017C018F
:1002C000C01AD10AE20AF30A48EEC41643E0D40683
:1002D000E104F10408F4CDC060938E0170938F01A6
:1002E000809390019093910180919C0190919D0148
:1002F00061E00197C1F486E00E94E50461E085E0D9
:100300000E94E50461E084E00E94E50461E083E08E
:100310000E94E50461E082E00E94E50410929D01E4
:1003200010929C01A6C086E00E94E50461E085E091
:100330000E94E50461E084E00E94E50461E083E05E
:100340000E94E50460E082E00E94E504D0939D01F4
:10035000C0939C018EC08091AA019091AB01803521
:100360009105A4F060E086E00E94E50460E085E08D
:100370000E94E50460E084E00E94E50460E083E020
:100380000E94E50460E082E00E94E5048091AA01F9
:100390009091AB01CC974497A0F461E086E00E9475
:1003A000E50460E085E00E94E50460E084E00E94EE
:1003B000E50460E083E00E94E50460E082E00E94E2
:1003C000E5048091AA019091AB0188974497A0F42D
:1003D00061E086E00E94E50461E085E00E94E504BA
:1003E00060E084E00E94E50460E083E00E94E504B0
:1003F00060E082E00E94E5048091AA019091AB0147
:1004000044974497A0F461E086E00E94E50461E02F
:1004100085E00E94E50461E084E00E94E50460E07C
:1004200083E00E94E50460E082E00E94E5048091A0
:10043000AA019091AB014497E4F461E086E00E9448
:10044000E50461E085E00E94E50461E084E00E944B
:10045000E50461E083E00E94E50460E082E0DF9172
:10046000CF911F910F91FF90EF90DF90CF900C9460
:10047000E504DF91CF911F910F91FF90EF90DF90F6
:10048000CF90089540E052EC61E070E087EB91E09E
:100490000E94F50761E08DE00E94AC0460E08CE012
:1004A0000E94AC0461E086E00E94AC0461E085E05B
:1004B0000E94AC0461E084E00E94AC0461E083E04F
:1004C0000E94AC0461E082E00E94AC041092A101A1
:1004D0001092A00110929F0110929E010E948C0028
:1004E0000E94CC0060E070E0CB010C9446018F923A
:1004F0009F92AF92BF92CF92DF92EF92FF920E94B3
:10050000F3036B017C010E948C00C701B6010E94BD
:1005100046010E9415012091AA013091AB01409142
:10052000A8015091A9012417350771F18091A60106
:100530009091A7012817390739F180918601909190
:100540008701A0918801B091890146015701881A5D
:10055000990AAA0ABB0A68EE861663E09606A10409
:10056000B10490F0C0928601D0928701E092880198
:10057000F09289015093A7014093A6013093A901FD
:100580002093A8010E94CC00809196019091970140
:10059000A0919801B091990146015701881A990AD2
:1005A000AA0ABB0A20EC821624ED920621E0A206DC
:1005B000B10470F0C0929601D0929701E092980138
:1005C000F09299011092A3011092A2010E94CC0016
:1005D0008091A0019091A1010597A4F081E090E0A5
:1005E00090939F0180939E01C0928A01D0928B01CB
:1005F000E0928C01F0928D0166E471E087EB91E06E
:100600000E94030680919E0190919F01892B09F021
:100610007AC08091920190919301A0919401B09140
:10062000950146015701881A990AAA0ABB0A20E8CF
:1006300082162EEE920626E3A206B10460F0109216
:10064000A1011092A001C0929201D0929301E09278
:100650009401F09295018091AA019091AB01889745
:100660003CF080919A0190919B01019709F046C05E
:100670008091A2019091A301892B09F03FC06AE506
:1006800071E087EB91E00E94E60561E08DE00E9459
:10069000E50468E57BE180E090E00E94220460E0F0
:1006A0008DE00E94E50466E671E087EB91E00E9430
:1006B000030681E090E09093A3018093A2016091F2
:1006C000A0017091A1016F5F7F4F7093A1016093B2
:1006D000A0014AE050E087EB91E00E94C0068091C3
:1006E000A0019091A101029734F5C0929201D0929D
:1006F0009301E0929401F09295011DC060E08DE0BD
:100700000E94E50418C080918A0190918B01A0910C
:100710008C01B0918D01C81AD90AEA0AFB0A30E8A7
:10072000C3163EEED30636E3E306F10420F0109242
:100730009F0110929E0164E070E080E090E0FF90E5
:10074000EF90DF90CF90BF90AF909F908F900C94E0
:1007500022041F920F920FB60F9211242F933F93F2
:100760008F939F93AF93BF938091AF019091B0010E
:10077000A091B101B091B2013091AE0123E0230FFD
:100780002D3720F40196A11DB11D05C026E8230FC9
:100790000296A11DB11D2093AE018093AF019093ED
:1007A000B001A093B101B093B2018091B3019091D7
:1007B000B401A091B501B091B6010196A11DB11D82
:1007C0008093B3019093B401A093B501B093B601A7
:1007D000BF91AF919F918F913F912F910F900FBE3D
:1007E0000F901F9018952FB7F8946091AF017091FA
:1007F000B0018091B1019091B2012FBF08953FB730
:10080000F8948091B3019091B401A091B501B09199
:10081000B60126B5A89B05C02F3F19F00196A11D72
:10082000B11D3FBF6627782F892F9A2F620F711D48
:10083000811D911D42E0660F771F881F991F4A9501
:10084000D1F70895CF92DF92EF92FF92CF93DF938B
:100850006B017C010E94FF03EB01C114D104E10490
:10086000F10479F00E94FF036C1B7D0B683E73401E
:10087000A0F381E0C81AD108E108F108C851DC4FA3
:10088000ECCFDF91CF91FF90EF90DF90CF90089564
:10089000789484B5826084BD84B5816084BD85B55B
:1008A000826085BD85B5816085BDEEE6F0E0808122
:1008B00081608083E1E8F0E0108280818260808343
:1008C000808181608083E0E8F0E0808181608083C6
:1008D000E1EBF0E0808184608083E0EBF0E08081F8
:1008E00081608083EAE7F0E080818460808380819A
:1008F0008260808380818160808380818068808342
:100900001092C1000895833081F028F4813099F06D
:100910008230A1F008958630A9F08730B9F0843094
:10092000D1F4809180008F7D03C0809180008F770B
:1009300080938000089584B58F7702C084B58F7D41
:1009400084BD08958091B0008F7703C08091B0007E
:100950008F7D8093B0000895CF93DF9390E0FC01EA
:10096000E458FF4F2491FC01E057FF4F8491882306
:1009700049F190E0880F991FFC01E854FF4FA591C1
:10098000B49182559F4FFC01C591D4919FB76111DD
:1009900008C0F8948C91209582238C9388818223BF
:1009A0000AC0623051F4F8948C91322F3095832331
:1009B0008C938881822B888304C0F8948C91822B3D
:1009C0008C939FBFDF91CF9108950F931F93CF9387
:1009D000DF931F92CDB7DEB7282F30E0F901E85939
:1009E000FF4F8491F901E458FF4F1491F901E0574A
:1009F000FF4F04910023C9F0882321F069830E94EE
:100A000083046981E02FF0E0EE0FFF1FE255FF4FF6
:100A1000A591B4919FB7F8948C91611103C0109582
:100A2000812301C0812B8C939FBF0F90DF91CF91C9
:100A30001F910F910895CF93DF93282F30E0F90194
:100A4000E859FF4F8491F901E458FF4FD491F9011F
:100A5000E057FF4FC491CC2391F081110E94830491
:100A6000EC2FF0E0EE0FFF1FEC55FF4FA591B49176
:100A70002C912D2381E090E021F480E002C080E001
:100A800090E0DF91CF9108958E3008F08E508770FE
:100A90002091040190E4299F90011124822B8093DE
:100AA0007C0080917A00806480937A0080917A0043
:100AB00086FDFCCF809178002091790090E0922B08
:100AC00008954F925F926F927F92AF92BF92CF92B2
:100AD000DF92EF92FF920F931F93CF93DF93CDB7E7
:100AE000DEB729013A01621B730B840B950B298930
:100AF0003A894B895C892A193B094C095D09298B84
:100B00003A8B4B8B5C8B9B01AC0169897A898B8911
:100B10009C890E94CF08E418F50806091709A80166
:100B200097010E9401092A0D3B1D4C1D5D1DCA0144
:100B3000B901DF91CF911F910F91FF90EF90DF905E
:100B4000CF90BF90AF907F906F905F904F9008953F
:100B5000CF92DF92EF92FF920F931F93CF93DF9389
:100B60006C017A01EB01E60EF71E00E010E0CE15F5
:100B7000DF0561F06991D601ED91FC910190F08162
:100B8000E02DC6010995080F191FF1CFC801DF91AB
:100B9000CF911F910F91FF90EF90DF90CF9008952C
:100BA0006115710581F0DB010D900020E9F7AD01C1
:100BB00041505109461B570BDC01ED91FC9102801D
:100BC000F381E02D099480E090E008950C94D00525
:100BD000DC01ED91FC910190F081E02D09940F93DF
:100BE0001F93CF93DF93EC016DE00E94E8058C0129
:100BF0006AE0CE010E94E805800F911FDF91CF913E
:100C00001F910F9108950F931F93CF93DF93EC01E2
:100C10000E94D0058C01CE010E94EF05800F911F2C
:100C2000DF91CF911F910F9108958F929F92AF9274
:100C3000BF92CF92DF92EF92FF920F931F93CF93C9
:100C4000DF93CDB7DEB7A1970FB6F894DEBF0FBE26
:100C5000CDBF7C01C42EE52FCB01D22E19A221E0FD
:100C60002D1510F02AE0D22E8E010F5D1F4F8D2C16
:100C7000912CA12CB12C6C2D7E2FA50194010E94EA
:100C8000DF088C2DD29E80191124015011098A3061
:100C900014F4805D01C0895CF80180832115310561
:100CA0004105510521F0C22EE32FCA01E4CFB8015E
:100CB000C7010E94D005A1960FB6F894DEBF0FBE03
:100CC000CDBFDF91CF911F910F91FF90EF90DF90FB
:100CD000CF90BF90AF909F908F900895CF92DF926A
:100CE000EF92FF920F931F93CF93DF93EC016A0172
:100CF0007B012115310579F4E881F9810190F081BA
:100D0000E02D642FDF91CF911F910F91FF90EF9015
:100D1000DF90CF9009942A303105E9F477FF1AC0AB
:100D20006DE20E94E8058C0144275527BA014C1951
:100D30005D096E097F092AE0CE010E941506800F29
:100D4000911FDF91CF911F910F91FF90EF90DF9056
:100D5000CF9008952AE0B701A601CE01DF91CF918F
:100D60001F910F91FF90EF90DF90CF900C9415069C
:100D70009A01AB01662757FD6095762F0C946E069D
:100D80000F931F93CF93DF93EC019A01AB0166277A
:100D900057FD6095762F0E946E068C01CE010E9451
:100DA000EF05800F911FDF91CF911F910F91089553
:100DB0000E9448040E944202C1EBD7E00E947702E1
:100DC0002097E1F30E94B107F9CFFC012485358516
:100DD000F901E05CFF4F8081918132962081318161
:100DE000821B930B8F7399270895FC018485958549
:100DF000FC01E05CFF4F40815181329620813181BE
:100E00004217530741F00190F081E02DE80FF91FE0
:100E1000808190E008958FEF9FEF0895FC01848515
:100E20009585FC01E05CFF4F408151813296208125
:100E300031814217530779F0A081B181A80FB91F02
:100E40008C91208131812F5F3F4F2F733327318366
:100E5000208390E008958FEF9FEF0895FC0181A11A
:100E6000882329F0A489B5898C9186FFFBCF11A234
:100E70000895CF93DF93FC0126853785D901A05CC7
:100E8000BF4F8D919C91119701968F739927E9011E
:100E9000CE5BDF4F4881598184179507D9F30D90B8
:100EA000BC91A02DA20FB31F6C93A685B785A05C43
:100EB000BF4F11969C938E93A689B7892C9181E0A0
:100EC00090E0078C02C0880F991F0A94E2F7282B44
:100ED0002C9381E081A30488F589E02D80818064D2
:100EE000808381E090E0DF91CF91089508951F9273
:100EF0000F920FB60F9211242F933F934F938F931E
:100F00009F93EF93FF938091C00082FD1CC040919E
:100F1000C60080915D0290915E0201968F739927C1
:100F200020915F02309160028217930771F0E09187
:100F30005D02F0915E02E35EFD4F408390935E029E
:100F400080935D0202C08091C600FF91EF919F9156
:100F50008F914F913F912F910F900FBE0F901F9047
:100F6000189587EB91E00E94E506892B11F00C940F
:100F7000760708951F920F920FB60F9211242F93A8
:100F80003F938F939F93EF93FF932091190230919A
:100F90001A0280911B0290911C022817390731F424
:100FA0008091C1008F7D8093C10014C0E0911B022D
:100FB000F0911C02E752FE4F208180911B0290911C
:100FC0001C0201968F73992790931C0280931B0239
:100FD0002093C600FF91EF919F918F913F912F91A8
:100FE0000F900FBE0F901F901895CF92DF92EF9247
:100FF000FF92CF93DF93EC016A017B01411581EEF3
:10100000580761057105F9F0EC89FD8981E090E0F0
:1010100008A002C0880F991F0A94E2F7808360E05D
:1010200079E08DE390E0A70196010E94DF0821504E
:10103000310941095109569547953795279521154D
:1010400080E1380798F0EC89FD89108260E874E847
:101050008EE190E0A70196010E94DF08215031093E
:10106000410951095695479537952795E889F9899A
:101070003083EA89FB89208319A2EE89FF894081A8
:1010800081E090E09C010C8C02C0220F331F0A9477
:10109000E2F7422B4083EE89FF8940819C010D8C51
:1010A00002C0220F331F0A94E2F7422B4083EE89DD
:1010B000FF8940819C010E8C02C0220F331F0A94CD
:1010C000E2F7422B4083EE89FF8920810F8C02C01A
:1010D000880F991F0A94E2F7809582238083DF911D
:1010E000CF91FF90EF90DF90CF9008951092BA01CA
:1010F0001092B90188EE93E0A0E0B0E08093BB01CC
:101100009093BC01A093BD01B093BE0189E791E02B
:101110009093B8018093B7018DE192E09093C40160
:101120008093C30189ED91E09093C6018093C5013E
:1011300085EC90E09093C8018093C70184EC90E027
:101140009093CA018093C90180EC90E09093CC0108
:101150008093CB0181EC90E09093CE018093CD0100
:1011600082EC90E09093D0018093CF0186EC90E0E8
:101170009093D2018093D10184E08093D30183E0E6
:101180008093D40187E08093D50185E08093D601D8
:1011900081E08093D7010895F8940C944009DB0115
:1011A0008F939F930E942009BF91AF91A29F800DC2
:1011B000911DA39F900DB29F900D11240895A1E25F
:1011C0001A2EAA1BBB1BFD010DC0AA1FBB1FEE1FC1
:1011D000FF1FA217B307E407F50720F0A21BB30B0C
:1011E000E40BF50B661F771F881F991F1A9469F788
:1011F00060957095809590959B01AC01BD01CF01E4
:101200000895052E97FB1EF400940E94180957FDBF
:1012100007D00E94DF0807FC03D04EF40C94180995
:1012200050954095309521953F4F4F4F5F4F089512
:1012300090958095709561957F4F8F4F9F4F089542
:101240000E943109A59F900DB49F900DA49F800D21
:10125000911D11240895EE0FFF1F0590F491E02DCC
:101260000994A29FB001B39FC001A39F700D811D7F
:101270001124911DB29F700D811D1124911D08959F
:04128000F894FFCF10
:1012840001000000017261773A200020206D617036
:101294003A200020206469673A002020785761745E
:1012A40028216E6F6B213A20002020785761742822
:1012B4002E6F6B2E293A20006879737465726573FA
:1012C4006973203D20002121214F76657257617496
:1012D4006572696E67212121210057617465726905
:1012E4006E672E2E2E00446F6E65205761746572F2
:1012F400696E672E00000000003907A805E5060E98
:0613040007F5062E0700AC
:00000001FF
