:100000000C9462000C948A000C948A000C948A0070
:100010000C948A000C948A000C948A000C948A0038
:100020000C948A000C948A000C948A000C948A0028
:100030000C948A000C948A000C948A000C948A0018
:100040000C94BB040C948A000C9496080C94D90868
:100050000C948A000C948A000C948A000C948A00F8
:100060000C948A000C948A00000000070002010032
:100070000003040600000000000000000102040864
:100080001020408001020408102001020408102002
:10009000040404040404040402020202020203032E
:1000A00003030303000000002300260029000000D2
:1000B0000000250028002B0000000000240027007D
:1000C0002A00950911241FBECFEFD8E0DEBFCDBFB7
:1000D00011E0A0E0B1E0E2ECF4E102C005900D9285
:1000E000A239B107D9F722E0A2E9B1E001C01D921F
:1000F000AF37B207E1F710E0C4ECD0E004C02297BC
:10010000FE010E944C0AC23CD107C9F70E94F707C2
:100110000C94EB090C940000AF92BF92CF92DF9247
:10012000EF92FF920F931F938CE00E942D06909305
:10013000C3018093C2018EE00E9456069093CB01CA
:100140008093CA01BC01882777FD8095982F1F9264
:100150001F921F921F9224E6A22EB12CC12CD12CEB
:10016000EE24EA9413E0F12E00E010E020E030E00D
:10017000A9010E9473067093C9016093C8010F9092
:100180000F900F900F901F910F91FF90EF90DF90C5
:10019000CF90BF90AF9008950F931F9365E071E0EB
:1001A00085ED91E00E94F8066091CA017091CB0143
:1001B0004AE050E085ED91E00E94CA076BE071E0F3
:1001C00085ED91E00E94F8066091C8017091C90127
:1001D0004AE050E085ED91E00E94CA0763E171E0DA
:1001E00085ED91E00E94F8066091C2017091C30113
:1001F0004AE050E085ED91E00E94CA078091BC0181
:100200009091BD010197C9F56091AE017091AF0168
:100210008091B0019091B10100919E0110919F01D8
:100220002091A0013091A101601B710B820B930BF7
:1002300020E63AEE40E050E00E94FE092093920151
:100240003093930140939401509395016AE171E0DA
:1002500085ED91E00E94F806409192015091930142
:1002600060919401709195012AE030E085ED91E074
:100270000E94EA0767E271E00BC08091B80190919B
:10028000B901019719F46CE271E002C06FE371E00B
:1002900085ED91E00E94F8066091BE017091BF016A
:1002A0004AE050E085ED91E01F910F910C94D20748
:1002B0008091C8019091C901883291056CF48091B8
:1002C000B8019091B901892B99F481E090E0909365
:1002D000B9018093B8010895CD9754F08091B80189
:1002E0009091B901019721F41092B9011092B801CF
:1002F0000895CF92DF92EF92FF920F931F93CF93C7
:10030000DF93C091BC01D091BD01C130D10509F08E
:1003100055C00091A2011091A3012091A401309138
:10032000A5016B017C01C01AD10AE20AF30A48EE6A
:10033000C41643E0D406E104F10408F4CDC0609390
:10034000A2017093A3018093A4019093A5018091D1
:10035000BA019091BB0161E00197C1F486E00E946F
:10036000F70561E085E00E94F70561E084E00E9406
:10037000F70561E083E00E94F70561E082E00E94FA
:10038000F7051092BB011092BA01A6C086E00E9448
:10039000F70561E085E00E94F70561E084E00E94D6
:1003A000F70561E083E00E94F70560E082E00E94CB
:1003B000F705D093BB01C093BA018EC08091C801EC
:1003C0009091C90180359105A4F060E086E00E941B
:1003D000F70560E085E00E94F70560E084E00E9498
:1003E000F70560E083E00E94F70560E082E00E948C
:1003F000F7058091C8019091C901CC974497A0F46A
:1004000061E086E00E94F70560E085E00E94F70564
:1004100060E084E00E94F70560E083E00E94F70559
:1004200060E082E00E94F7058091C8019091C901C7
:1004300088974497A0F461E086E00E94F70561E0A8
:1004400085E00E94F70560E084E00E94F70560E027
:1004500083E00E94F70560E082E00E94F70580914A
:10046000C8019091C90144974497A0F461E086E0E7
:100470000E94F70561E085E00E94F70561E084E0F5
:100480000E94F70560E083E00E94F70560E082E0EB
:100490000E94F7058091C8019091C9014497E4F446
:1004A00061E086E00E94F70561E085E00E94F705C3
:1004B00061E084E00E94F70561E083E00E94F705B7
:1004C00060E082E0DF91CF911F910F91FF90EF905C
:1004D000DF90CF900C94F705DF91CF911F910F9192
:1004E000FF90EF90DF90CF90089540E052EC61E0F4
:1004F00070E085ED91E00E94140961E08DE00E94BA
:10050000BE0560E08CE00E94BE0561E086E00E94CE
:10051000BE0561E085E00E94BE0561E084E00E94C6
:10052000BE0561E083E00E94BE0561E082E00E94BA
:10053000BE0562E089E00E94BE051092BF011092E4
:10054000BE011092BD011092BC011092C101109227
:10055000C0011092B9011092B8011092B701109227
:10056000B6011092B5011092B4011092B30110922D
:10057000B2011092AA011092AB011092AC0110923C
:10058000AD011092A6011092A7011092A80110923D
:10059000A90110929E0110929F011092A001109249
:1005A000A10110929A0110929B0110929C0110924D
:1005B0009D0110929601109297011092980110924D
:1005C00099016AE070E080E090E00E9434056EE6F8
:1005D00071E085ED91E00E94150762E571E085ED1F
:1005E00091E00E9415076EE671E085ED91E00E94B2
:1005F00015076AE070E080E090E00E9434050E94F8
:100600008C000E94CC0060E070E0CB010C9479017A
:10061000EF92FF920F931F93CF930E940505609373
:10062000AE017093AF018093B0019093B1010E942D
:100630008C006091AE017091AF018091B0019091FA
:10064000B1010E9479010E9458012091C8013091A6
:10065000C901E091C601F091C7012E173F07B1F122
:100660008091C4019091C5012817390779F18091D3
:10067000AE019091AF01A091B001B091B101409154
:100680009A0150919B0160919C0170919D017C01A8
:100690008D01E41AF50A060B170BB801A701483EB5
:1006A00053406105710590F080939A0190939B01EE
:1006B000A0939C01B0939D01F093C501E093C40108
:1006C0003093C7012093C6010E94CC008091AE01F7
:1006D0009091AF01A091B001B091B1014091AA01F8
:1006E0005091AB016091AC017091AD017C018D0125
:1006F000E41AF50A060B170BB801A701403C544D4C
:100700006140710570F08093AA019093AB01A093B2
:10071000AC01B093AD011092C1011092C0010E94D2
:10072000CC0089E00E942D064091AE015091AF01AE
:100730006091B0017091B1012091B6013091B70183
:10074000892B41F5232B61F48091B4019091B5017F
:10075000892B31F481E090E09093B7018093B6014A
:100760008091960190919701A0919801B091990183
:100770007A018B01E81AF90A0A0B1B0BD801C70191
:1007800080349F41A105B10510F11092B50110927E
:10079000B4011DC021303105D1F48091B401909194
:1007A000B501892BA1F41092B7011092B6013093D4
:1007B000B5012093B4013093B3012093B20140936B
:1007C00096015093970160939801709399018091DD
:1007D000BC019091BD012091B2013091B301892BF0
:1007E00021F02130310509F0A6C08091A601909139
:1007F000A701A091A801B091A9017A018B01E81A83
:10080000F90A0A0B1B0BD801C70180389E4EA6437C
:10081000B10560F01092BF011092BE014093A60195
:100820005093A7016093A8017093A901213031056D
:1008300071F08091B8019091B901019709F076C0EB
:100840008091C0019091C101892B09F06FC066E6CB
:1008500071E085ED91E00E94F80661E08DE00E9474
:10086000F70568E57BE180E090E00E94340560E0F8
:100870008DE00E94F70562E771E085ED91E00E944E
:10088000150781E090E09093C1018093C0018091B1
:10089000B2019091B301019769F41092B3011092E3
:1008A000B2011092B9011092B8011092BD011092DC
:1008B000BC0109C08091BE019091BF010196909347
:1008C000BF018093BE018091BE019091BF01823033
:1008D00091058CF48091AE019091AF01A091B0018F
:1008E000B091B1018093A6019093A701A093A801B4
:1008F000B093A90118C00597B4F081E090E09093FF
:10090000BD018093BC018091AE019091AF01A09197
:10091000B001B091B10180939E0190939F01A0938B
:10092000A001B093A1010E94CC001AC060E08DE04C
:100930000E94F70515C080919E0190919F01A091A2
:10094000A001B091A101481B590B6A0B7B0B4038E9
:100950005E4E6643710520F01092BD011092BC01FD
:1009600064E070E080E090E0CF911F910F91FF90E4
:10097000EF900C9434051F920F920FB60F92112432
:100980002F933F938F939F93AF93BF938091CD010C
:100990009091CE01A091CF01B091D0013091CC01C6
:1009A00023E0230F2D3720F40196A11DB11D05C0B2
:1009B00026E8230F0296A11DB11D2093CC01809340
:1009C000CD019093CE01A093CF01B093D00180913F
:1009D000D1019091D201A091D301B091D40101969F
:1009E000A11DB11D8093D1019093D201A093D30199
:1009F000B093D401BF91AF919F918F913F912F916F
:100A00000F900FBE0F901F9018952FB7F89460911C
:100A1000CD017091CE018091CF019091D0012FBF77
:100A200008953FB7F8948091D1019091D201A0919F
:100A3000D301B091D40126B5A89B05C02F3F19F072
:100A40000196A11DB11D3FBF6627782F892F9A2FD0
:100A5000620F711D811D911D42E0660F771F881F77
:100A6000991F4A95D1F70895CF92DF92EF92FF92A6
:100A7000CF93DF936B017C010E941105EB01C11440
:100A8000D104E104F10479F00E9411056C1B7D0B87
:100A9000683E7340A0F381E0C81AD108E108F1086C
:100AA000C851DC4FECCFDF91CF91FF90EF90DF90FA
:100AB000CF900895789484B5826084BD84B58160B8
:100AC00084BD85B5826085BD85B5816085BDEEE656
:100AD000F0E0808181608083E1E8F0E01082808135
:100AE00082608083808181608083E0E8F0E08081A3
:100AF00081608083E1EBF0E0808184608083E0EBC3
:100B0000F0E0808181608083EAE7F0E080818460AA
:100B10008083808182608083808181608083808106
:100B2000806880831092C1000895833081F028F49A
:100B3000813099F08230A1F008958630A9F0873095
:100B4000B9F08430D1F4809180008F7D03C0809112
:100B500080008F7780938000089584B58F7702C0DE
:100B600084B58F7D84BD08958091B0008F7703C0D8
:100B70008091B0008F7D8093B0000895CF93DF9374
:100B800090E0FC01E458FF4F2491FC01E057FF4F37
:100B90008491882349F190E0880F991FFC01E85463
:100BA000FF4FA591B49182559F4FFC01C591D491FF
:100BB0009FB7611108C0F8948C91209582238C9383
:100BC000888182230AC0623051F4F8948C91322FCC
:100BD000309583238C938881822B888304C0F8947A
:100BE0008C91822B8C939FBFDF91CF9108950F93AF
:100BF0001F93CF93DF931F92CDB7DEB7282F30E03E
:100C0000F901E859FF4F8491F901E458FF4F14911D
:100C1000F901E057FF4F04910023C9F0882321F028
:100C200069830E9495056981E02FF0E0EE0FFF1FB8
:100C3000E255FF4FA591B4919FB7F8948C91611143
:100C400003C01095812301C0812B8C939FBF0F900F
:100C5000DF91CF911F910F910895CF93DF93282FAC
:100C600030E0F901E859FF4F8491F901E458FF4F52
:100C7000D491F901E057FF4FC491CC2391F0811139
:100C80000E949505EC2FF0E0EE0FFF1FEC55FF4F93
:100C9000A591B4912C912D2381E090E021F480E086
:100CA00002C080E090E0DF91CF9108958E3008F08F
:100CB0008E5087702091040190E4299F90011124A7
:100CC000822B80937C0080917A00806480937A00EC
:100CD00080917A0086FDFCCF809178002091790088
:100CE00090E0922B08954F925F926F927F92AF9215
:100CF000BF92CF92DF92EF92FF920F931F93CF9309
:100D0000DF93CDB7DEB729013A01621B730B840B69
:100D1000950B29893A894B895C892A193B094C0929
:100D20005D09298B3A8B4B8B5C8B9B01AC016989EC
:100D30007A898B899C890E94EE09E418F5080609D6
:100D40001709A80197010E94200A2A0D3B1D4C1D7E
:100D50005D1DCA01B901DF91CF911F910F91FF90E5
:100D6000EF90DF90CF90BF90AF907F906F905F90AB
:100D70004F900895CF92DF92EF92FF920F931F93BF
:100D8000CF93DF936C017A01EB01E60EF71E00E0D2
:100D900010E0CE15DF0561F06991D601ED91FC916F
:100DA0000190F081E02DC6010995080F191FF1CFC0
:100DB000C801DF91CF911F910F91FF90EF90DF90CD
:100DC000CF9008956115710581F0DB010D90002031
:100DD000E9F7AD0141505109461B570BDC01ED917C
:100DE000FC910280F381E02D099480E090E0089569
:100DF0000C94E206DC01ED91FC910190F081E02D74
:100E000009940F931F93CF93DF93EC016DE00E9441
:100E1000FA068C016AE0CE010E94FA06800F911F4B
:100E2000DF91CF911F910F9108950F931F93CF934F
:100E3000DF93EC010E94E2068C01CE010E940107C3
:100E4000800F911FDF91CF911F910F9108958F9285
:100E50009F92AF92BF92CF92DF92EF92FF920F9349
:100E60001F93CF93DF93CDB7DEB7A1970FB6F8945A
:100E7000DEBF0FBECDBF7C01C42EE52FCB01D22E2D
:100E800019A221E02D1510F02AE0D22E8E010F5D5F
:100E90001F4F8D2C912CA12CB12C6C2D7E2FA501D8
:100EA00094010E94FE098C2DD29E801911240150BC
:100EB00011098A3014F4805D01C0895CF8018083D7
:100EC000211531054105510521F0C22EE32FCA013C
:100ED000E4CFB801C7010E94E206A1960FB6F894CC
:100EE000DEBF0FBECDBFDF91CF911F910F91FF905D
:100EF000EF90DF90CF90BF90AF909F908F9008952C
:100F0000CF92DF92EF92FF920F931F93CF93DF93D5
:100F1000EC016A017B012115310579F4E881F98141
:100F20000190F081E02D642FDF91CF911F910F91FF
:100F3000FF90EF90DF90CF9009942A303105E9F4CB
:100F400077FF1AC06DE20E94FA068C0144275527EC
:100F5000BA014C195D096E097F092AE0CE010E9491
:100F60002707800F911FDF91CF911F910F91FF9065
:100F7000EF90DF90CF9008952AE0B701A601CE014F
:100F8000DF91CF911F910F91FF90EF90DF90CF9065
:100F90000C9427079A01AB01662757FD6095762FC1
:100FA0000C9480070F931F93CF93DF93EC019A016A
:100FB000AB01662757FD6095762F0E9480078C0154
:100FC000CE010E940107800F911FDF91CF911F91E9
:100FD0000F9108952115310541F4DC01ED91FC914B
:100FE0000190F081E02D642F09940C9427070E9452
:100FF0005A050E947502C0EDD8E00E9408032097B0
:10100000E1F30E94D008F9CFFC0124853585F90170
:10101000E05CFF4F80819181329620813181821B7B
:10102000930B8F7399270895FC0184859585FC01A6
:10103000E05CFF4F4081518132962081318142171F
:10104000530741F00190F081E02DE80FF91F8081F6
:1010500090E008958FEF9FEF0895FC0184859585BA
:10106000FC01E05CFF4F408151813296208131814B
:101070004217530779F0A081B181A80FB91F8C9155
:10108000208131812F5F3F4F2F733327318320839E
:1010900090E008958FEF9FEF0895FC0181A18823D0
:1010A00029F0A489B5898C9186FFFBCF11A2089500
:1010B000CF93DF93FC0126853785D901A05CBF4F14
:1010C0008D919C91119701968F739927E901CE5BC1
:1010D000DF4F4881598184179507D9F30D90BC9152
:1010E000A02DA20FB31F6C93A685B785A05CBF4F40
:1010F00011969C938E93A689B7892C9181E090E0FC
:10110000078C02C0880F991F0A94E2F7282B2C93B2
:1011100081E081A30488F589E02D8081806480834B
:1011200081E090E0DF91CF91089508951F920F9292
:101130000FB60F9211242F933F934F938F939F934A
:10114000EF93FF938091C00082FD1CC04091C600C8
:1011500080917B0290917C0201968F739927209158
:101160007D0230917E028217930771F0E0917B023D
:10117000F0917C02E55CFD4F408390937C0280936C
:101180007B0202C08091C600FF91EF919F918F91E9
:101190004F913F912F910F900FBE0F901F90189578
:1011A00085ED91E00E940408892B11F00C949508BC
:1011B00008951F920F920FB60F9211242F933F9311
:1011C0008F939F93EF93FF932091370230913802D2
:1011D0008091390290913A022817390731F48091B1
:1011E000C1008F7D8093C10014C0E0913902F0915D
:1011F0003A02E950FE4F20818091390290913A02E3
:1012000001968F73992790933A0280933902209325
:10121000C600FF91EF919F918F913F912F910F9079
:101220000FBE0F901F901895CF92DF92EF92FF9212
:10123000CF93DF93EC016A017B01411581EE5807E2
:1012400061057105F9F0EC89FD8981E090E008A065
:1012500002C0880F991F0A94E2F7808360E079E06A
:101260008DE390E0A70196010E94FE09215031090B
:10127000410951095695479537952795211580E1E4
:10128000380798F0EC89FD89108260E874E88EE1F7
:1012900090E0A70196010E94FE0921503109410901
:1012A00051095695479537952795E889F9893083EF
:1012B000EA89FB89208319A2EE89FF89408181E0B8
:1012C00090E09C010C8C02C0220F331F0A94E2F7BD
:1012D000422B4083EE89FF8940819C010D8C02C026
:1012E000220F331F0A94E2F7422B4083EE89FF89D5
:1012F00040819C010E8C02C0220F331F0A94E2F73A
:10130000422B4083EE89FF8920810F8C02C0880F19
:10131000991F0A94E2F7809582238083DF91CF9111
:10132000FF90EF90DF90CF9008951092D801109227
:10133000D70188EE93E0A0E0B0E08093D9019093CC
:10134000DA01A093DB01B093DC0185E891E0909392
:10135000D6018093D5018BE392E09093E2018093D4
:10136000E10187EF91E09093E4018093E30185EC44
:1013700090E09093E6018093E50184EC90E09093F7
:10138000E8018093E70180EC90E09093EA0180937C
:10139000E90181EC90E09093EC018093EB0182EC09
:1013A00090E09093EE018093ED0186EC90E09093B5
:1013B000F0018093EF0184E08093F10183E080935A
:1013C000F20187E08093F30185E08093F40181E0EE
:1013D0008093F5010895F8940C945F0ADB018F93D4
:1013E0009F930E943F0ABF91AF91A29F800D911DD4
:1013F000A39F900DB29F900D11240895A1E21A2E83
:10140000AA1BBB1BFD010DC0AA1FBB1FEE1FFF1FA8
:10141000A217B307E407F50720F0A21BB30BE40BF8
:10142000F50B661F771F881F991F1A9469F760953F
:101430007095809590959B01AC01BD01CF010895F9
:10144000052E97FB1EF400940E94370A57FD07D023
:101450000E94FE0907FC03D04EF40C94370A509505
:101460004095309521953F4F4F4F5F4F0895909590
:101470008095709561957F4F8F4F9F4F08950E9483
:10148000500AA59F900DB49F900DA49F800D911DB3
:1014900011240895EE0FFF1F0590F491E02D09949B
:1014A000A29FB001B39FC001A39F700D811D1124A5
:1014B000911DB29F700D811D1124911D0895F89406
:0214C000FFCF5C
:1014C20001000000017261773A200020206D6170F6
:1014D2003A200020206469673A002020785761741E
:1014E200284F5645523D006D293A2000202078575A
:1014F2006174286879737465726573293A200020D3
:101502002078576174282E2E2E6F6B2E2E2E293A9C
:101512002000526573657474696E67205379737421
:10152200656D2E2E2E005761746572696E672E2EC0
:101532002E00446F6E65205761746572696E672E66
:1015420000000000005808BA0604082D0814084DCF
:0215520008008F
:00000001FF
