:100000000C9462000C948A000C948A000C948A0070
:100010000C948A000C948A000C948A000C948A0038
:100020000C948A000C948A000C948A000C948A0028
:100030000C948A000C948A000C948A000C948A0018
:100040000C9429030C948A000C94F7060C943A073C
:100050000C948A000C948A000C948A000C948A00F8
:100060000C948A000C948A00000000070002010032
:100070000003040600000000000000000102040864
:100080001020408001020408102001020408102002
:10009000040404040404040402020202020203032E
:1000A00003030303000000002300260029000000D2
:1000B0000000250028002B0000000000240027007D
:1000C0002A00F60711241FBECFEFD8E0DEBFCDBF58
:1000D00011E0A0E0B1E0E4E8F1E102C005900D928A
:1000E000A83AB107D9F722E0A8EAB1E001C01D9211
:1000F000A737B207E1F710E0C4ECD0E004C02297C4
:10010000FE010E94AD08C23CD107C9F70E94580603
:100110000C944C080C940000AF92BF92CF92DF92E7
:10012000EF92FF920F931F938CE00E949B04909399
:10013000BF018093BE018EE00E94C4049093C3016E
:100140008093C201BC01882777FD8095982F1F926C
:100150001F921F921F9224E6A22EB12CC12CD12CEB
:10016000EE24EA9413E0F12E00E010E020E030E00D
:10017000A9010E94E1047093C1016093C0010F9036
:100180000F900F900F901F910F91FF90EF90DF90C5
:10019000CF90BF90AF90089565E071E08DEC91E055
:1001A0000E9466056091C2017091C3014AE050E06F
:1001B0008DEC91E00E9438066FE071E08DEC91E0EB
:1001C0000E9466056091C0017091C1014AE050E053
:1001D0008DEC91E00E9438066BE171E08DEC91E0CE
:1001E0000E9466056091BE017091BF014AE050E037
:1001F0008DEC91E00E9438066FE271E08DEC91E0A9
:100200000E9466056091BA017091BB014AE050E01E
:100210008DEC91E00E9440068091B8019091B90167
:10022000019731F46FE371E08DEC91E00C94660579
:100230000895CF92DF92EF92FF920F931F93CF9387
:10024000DF93C091B801D091B901C130D10509F057
:1002500055C00091A8011091A9012091AA013091E7
:10026000AB016B017C01C01AD10AE20AF30A48EE25
:10027000C41643E0D406E104F10408F4CDC0609351
:10028000A8017093A9018093AA019093AB0180917A
:10029000B6019091B70161E00197C1F486E00E9438
:1002A000650461E085E00E94650461E084E00E94ED
:1002B000650461E083E00E94650461E082E00E94E1
:1002C00065041092B7011092B601A6C086E00E94A4
:1002D000650461E085E00E94650461E084E00E94BD
:1002E000650461E083E00E94650460E082E00E94B2
:1002F0006504D093B701C093B6018EC08091C00150
:100300009091C10180359105A4F060E086E00E94E3
:10031000650460E085E00E94650460E084E00E947E
:10032000650460E083E00E94650460E082E00E9472
:1003300065048091C0019091C101CC974497A0F4CD
:1003400061E086E00E94650460E085E00E9465044B
:1003500060E084E00E94650460E083E00E94650440
:1003600060E082E00E9465048091C0019091C1012B
:1003700088974497A0F461E086E00E94650461E0FC
:1003800085E00E94650460E084E00E94650460E00E
:1003900083E00E94650460E082E00E946504809131
:1003A000C0019091C10144974497A0F461E086E0B8
:1003B0000E94650461E085E00E94650461E084E0DC
:1003C0000E94650460E083E00E94650460E082E0D2
:1003D0000E9465048091C0019091C1014497E4F4AA
:1003E00061E086E00E94650461E085E00E946504AA
:1003F00061E084E00E94650461E083E00E9465049E
:1004000060E082E0DF91CF911F910F91FF90EF901C
:10041000DF90CF900C946504DF91CF911F910F91E5
:10042000FF90EF90DF90CF90089540E855E260E0B4
:1004300070E08DEC91E00E94750761E08DE00E9414
:100440002C0460E08CE00E942C0461E086E00E94B5
:100450002C0461E085E00E942C0461E084E00E94AD
:100460002C0461E083E00E942C0461E082E00E94A1
:100470002C041092BB011092BA011092B901109293
:10048000B8010E948C000E94CC0060E070E0CB01BB
:100490000C941901CF92DF92EF92FF920E947303A6
:1004A0006B017C010E948C00C701B6010E941901FA
:1004B0008091B0019091B101A091B201B091B301CE
:1004C000A7019601281B390B4A0B5B0BDA01C90106
:1004D00080369A4EA105B10570F0C092B001D0925D
:1004E000B101E092B201F092B3011092BD011092FD
:1004F000BC010E94CC008091B8019091B901892B78
:1005000009F09DC08091AC019091AD01A091AE0128
:10051000B091AF01A7019601281B390B4A0B5B0B69
:10052000DA01C90180349747AB41B10560F0109200
:10053000BB011092BA01C092AC01D092AD01E09221
:10054000AE01F092AF018091BA019091BB014C973E
:1005500064F081E090E09093B9018093B8016AE57E
:1005600071E08DEC91E00E9483058091C001909133
:10057000C10188973CF08091B4019091B501019739
:1005800009F059C08091BC019091BD01892B09F0FF
:1005900052C06EE671E08DEC91E00E94660580919C
:1005A000C0019091C101CC973CF481E090E0909320
:1005B000B5018093B40104C01092B5011092B4014A
:1005C0006AE771E08DEC91E00E9466056091B401EC
:1005D0007091B5014AE050E08DEC91E00E94400638
:1005E00061E08DE00E94650468E57BE180E090E0D9
:1005F0000E94A20360E08DE00E94650468E871E05B
:100600008DEC91E00E94830581E090E09093BD0124
:100610008093BC016091BA017091BB016F5F7F4F05
:100620007093BB016093BA014AE050E08DEC91E019
:100630000E94400604C060E08DE00E94650462E014
:1006400070E080E090E0FF90EF90DF90CF900C940E
:10065000A2031F920F920FB60F9211242F933F9374
:100660008F939F93AF93BF938091C5019091C601E3
:10067000A091C701B091C8013091C40123E0230FBC
:100680002D3720F40196A11DB11D05C026E8230FCA
:100690000296A11DB11D2093C4018093C5019093C2
:1006A000C601A093C701B093C8018091C901909180
:1006B000CA01A091CB01B091CC010196A11DB11D41
:1006C0008093C9019093CA01A093CB01B093CC0150
:1006D000BF91AF919F918F913F912F910F900FBE3E
:1006E0000F901F9018952FB7F8946091C5017091E5
:1006F000C6018091C7019091C8012FBF08953FB7EF
:10070000F8948091C9019091CA01A091CB01B09158
:10071000CC0126B5A89B05C02F3F19F00196A11D5D
:10072000B11D3FBF6627782F892F9A2F620F711D49
:10073000811D911D42E0660F771F881F991F4A9502
:10074000D1F70895CF92DF92EF92FF92CF93DF938C
:100750006B017C010E947F03EB01C114D104E10411
:10076000F10479F00E947F036C1B7D0B683E73409F
:10077000A0F381E0C81AD108E108F108C851DC4FA4
:10078000ECCFDF91CF91FF90EF90DF90CF90089565
:10079000789484B5826084BD84B5816084BD85B55C
:1007A000826085BD85B5816085BDEEE6F0E0808123
:1007B00081608083E1E8F0E0108280818260808344
:1007C000808181608083E0E8F0E0808181608083C7
:1007D000E1EBF0E0808184608083E0EBF0E08081F9
:1007E00081608083EAE7F0E080818460808380819B
:1007F0008260808380818160808380818068808343
:100800001092C1000895833081F028F4813099F06E
:100810008230A1F008958630A9F08730B9F0843095
:10082000D1F4809180008F7D03C0809180008F770C
:1008300080938000089584B58F7702C084B58F7D42
:1008400084BD08958091B0008F7703C08091B0007F
:100850008F7D8093B0000895CF93DF9390E0FC01EB
:10086000E458FF4F2491FC01E057FF4F8491882307
:1008700049F190E0880F991FFC01E854FF4FA591C2
:10088000B49182559F4FFC01C591D4919FB76111DE
:1008900008C0F8948C91209582238C9388818223C0
:1008A0000AC0623051F4F8948C91322F3095832332
:1008B0008C938881822B888304C0F8948C91822B3E
:1008C0008C939FBFDF91CF9108950F931F93CF9388
:1008D000DF931F92CDB7DEB7282F30E0F901E8593A
:1008E000FF4F8491F901E458FF4F1491F901E0574B
:1008F000FF4F04910023C9F0882321F069830E94EF
:1009000003046981E02FF0E0EE0FFF1FE255FF4F77
:10091000A591B4919FB7F8948C91611103C0109583
:10092000812301C0812B8C939FBF0F90DF91CF91CA
:100930001F910F910895CF93DF93282F30E0F90195
:10094000E859FF4F8491F901E458FF4FD491F90120
:10095000E057FF4FC491CC2391F081110E94030412
:10096000EC2FF0E0EE0FFF1FEC55FF4FA591B49177
:100970002C912D2381E090E021F480E002C080E002
:1009800090E0DF91CF9108958E3008F08E508770FF
:100990002091040190E4299F90011124822B8093DF
:1009A0007C0080917A00806480937A0080917A0044
:1009B00086FDFCCF809178002091790090E0922B09
:1009C00008954F925F926F927F92AF92BF92CF92B3
:1009D000DF92EF92FF920F931F93CF93DF93CDB7E8
:1009E000DEB729013A01621B730B840B950B298931
:1009F0003A894B895C892A193B094C095D09298B85
:100A00003A8B4B8B5C8B9B01AC0169897A898B8912
:100A10009C890E944F08E418F50806091709A801E7
:100A200097010E9481082A0D3B1D4C1D5D1DCA01C6
:100A3000B901DF91CF911F910F91FF90EF90DF905F
:100A4000CF90BF90AF907F906F905F904F90089540
:100A5000CF92DF92EF92FF920F931F93CF93DF938A
:100A60006C017A01EB01E60EF71E00E010E0CE15F6
:100A7000DF0561F06991D601ED91FC910190F08163
:100A8000E02DC6010995080F191FF1CFC801DF91AC
:100A9000CF911F910F91FF90EF90DF90CF9008952D
:100AA0006115710581F0DB010D900020E9F7AD01C2
:100AB00041505109461B570BDC01ED91FC9102801E
:100AC000F381E02D099480E090E008950C945005A6
:100AD000DC01ED91FC910190F081E02D09940F93E0
:100AE0001F93CF93DF93EC016DE00E9468058C01AA
:100AF0006AE0CE010E946805800F911FDF91CF91BF
:100B00001F910F9108950F931F93CF93DF93EC01E3
:100B10000E9450058C01CE010E946F05800F911F2D
:100B2000DF91CF911F910F9108958F929F92AF9275
:100B3000BF92CF92DF92EF92FF920F931F93CF93CA
:100B4000DF93CDB7DEB7A1970FB6F894DEBF0FBE27
:100B5000CDBF7C01C42EE52FCB01D22E19A221E0FE
:100B60002D1510F02AE0D22E8E010F5D1F4F8D2C17
:100B7000912CA12CB12C6C2D7E2FA50194010E94EB
:100B80005F088C2DD29E80191124015011098A30E2
:100B900014F4805D01C0895CF80180832115310562
:100BA0004105510521F0C22EE32FCA01E4CFB8015F
:100BB000C7010E945005A1960FB6F894DEBF0FBE84
:100BC000CDBFDF91CF911F910F91FF90EF90DF90FC
:100BD000CF90BF90AF909F908F900895CF92DF926B
:100BE000EF92FF920F931F93CF93DF93EC016A0173
:100BF0007B012115310579F4E881F9810190F081BB
:100C0000E02D642FDF91CF911F910F91FF90EF9016
:100C1000DF90CF9009942A303105E9F477FF1AC0AC
:100C20006DE20E9468058C0144275527BA014C19D2
:100C30005D096E097F092AE0CE010E949505800FAB
:100C4000911FDF91CF911F910F91FF90EF90DF9057
:100C5000CF9008952AE0B701A601CE01DF91CF9190
:100C60001F910F91FF90EF90DF90CF900C9495051E
:100C70009A01AB01662757FD6095762F0C94EE051F
:100C80000F931F93CF93DF93EC019A01AB0166277B
:100C900057FD6095762F0E94EE058C01CE010E94D3
:100CA0006F05800F911FDF91CF911F910F910895D4
:100CB0000E94C8030E941502C1E3D7E00E944A02C5
:100CC0002097E1F30E943107F9CFFC012485358597
:100CD000F901E05CFF4F8081918132962081318162
:100CE000821B930B8F7399270895FC01848595854A
:100CF000FC01E05CFF4F40815181329620813181BF
:100D00004217530741F00190F081E02DE80FF91FE1
:100D1000808190E008958FEF9FEF0895FC01848516
:100D20009585FC01E05CFF4F408151813296208126
:100D300031814217530779F0A081B181A80FB91F03
:100D40008C91208131812F5F3F4F2F733327318367
:100D5000208390E008958FEF9FEF0895FC0181A11B
:100D6000882329F0A489B5898C9186FFFBCF11A235
:100D70000895CF93DF93FC0126853785D901A05CC8
:100D8000BF4F8D919C91119701968F739927E9011F
:100D9000CE5BDF4F4881598184179507D9F30D90B9
:100DA000BC91A02DA20FB31F6C93A685B785A05C44
:100DB000BF4F11969C938E93A689B7892C9181E0A1
:100DC00090E0078C02C0880F991F0A94E2F7282B45
:100DD0002C9381E081A30488F589E02D80818064D3
:100DE000808381E090E0DF91CF91089508951F9274
:100DF0000F920FB60F9211242F933F934F938F931F
:100E00009F93EF93FF938091C00082FD1CC040919F
:100E1000C600809173029091740201968F73992796
:100E200020917502309176028217930771F0E0915C
:100E30007302F0917402ED5CFD4F40839093740255
:100E40008093730202C08091C600FF91EF919F9141
:100E50008F914F913F912F910F900FBE0F901F9048
:100E600018958DEC91E00E946506892B11F00C9489
:100E7000F60608951F920F920FB60F9211242F932A
:100E80003F938F939F93EF93FF9320912F02309185
:100E9000300280913102909132022817390731F4E3
:100EA0008091C1008F7D8093C10014C0E091310218
:100EB000F0913202E151FE4F2081809131029091F8
:100EC000320201968F7399279093320280933102F8
:100ED0002093C600FF91EF919F918F913F912F91A9
:100EE0000F900FBE0F901F901895CF92DF92EF9248
:100EF000FF92CF93DF93EC016A017B01411581EEF4
:100F0000580761057105F9F0EC89FD8981E090E0F1
:100F100008A002C0880F991F0A94E2F7808360E05E
:100F200079E08DE390E0A70196010E945F082150CF
:100F3000310941095109569547953795279521154E
:100F400080E1380798F0EC89FD89108260E874E848
:100F50008EE190E0A70196010E945F0821503109BF
:100F6000410951095695479537952795E889F9899B
:100F70003083EA89FB89208319A2EE89FF894081A9
:100F800081E090E09C010C8C02C0220F331F0A9478
:100F9000E2F7422B4083EE89FF8940819C010D8C52
:100FA00002C0220F331F0A94E2F7422B4083EE89DE
:100FB000FF8940819C010E8C02C0220F331F0A94CE
:100FC000E2F7422B4083EE89FF8920810F8C02C01B
:100FD000880F991F0A94E2F7809582238083DF911E
:100FE000CF91FF90EF90DF90CF9008951092D001B5
:100FF0001092CF0188EE93E0A0E0B0E08093D101A1
:101000009093D201A093D301B093D4018BE991E0E6
:101010009093CE018093CD0183E392E09093DA0127
:101020008093D9018FEE91E09093DC018093DB01F6
:1010300085EC90E09093DE018093DD0184EC90E0FC
:101040009093E0018093DF0180EC90E09093E201C7
:101050008093E10181EC90E09093E4018093E301BF
:1010600082EC90E09093E6018093E50186EC90E0BD
:101070009093E8018093E70184E08093E90183E0A5
:101080008093EA0187E08093EB0185E08093EC0197
:1010900081E08093ED010895F8940C94C008DB0181
:1010A0008F939F930E94A008BF91AF91A29F800D44
:1010B000911DA39F900DB29F900D11240895A1E260
:1010C0001A2EAA1BBB1BFD010DC0AA1FBB1FEE1FC2
:1010D000FF1FA217B307E407F50720F0A21BB30B0D
:1010E000E40BF50B661F771F881F991F1A9469F789
:1010F00060957095809590959B01AC01BD01CF01E5
:101100000895052E97FB1EF400940E94980857FD41
:1011100007D00E945F0807FC03D04EF40C94980897
:1011200050954095309521953F4F4F4F5F4F089513
:1011300090958095709561957F4F8F4F9F4F089543
:101140000E94B108A59F900DB49F900DA49F800DA3
:10115000911D11240895EE0FFF1F0590F491E02DCD
:101160000994A29FB001B39FC001A39F700D811D80
:101170001124911DB29F700D811D1124911D0895A0
:04118000F894FFCF11
:10118400010000000173656E736F72203D20000939
:10119400206F7574707574203D20000920646967A0
:1011A4006974616C206F7574707574203D2000093A
:1011B400207761746572636F756E74203D20002121
:1011C400214F766572576174657220466C616720A1
:1011D400697320747275652121002121214F766580
:1011E400725761746572696E67212121210057610C
:1011F400746572696E672E2E2E0068797374657239
:1012040065736973203D2000446F6E6520576174D7
:101214006572696E672E0000000000B90628056536
:08122400068E067506AE0600F9
:00000001FF
